:020000040800F2
:10000000500E0020890100089B0900089309000890
:1000100097090008B3050008231800080000000035
:1000200000000000000000000000000015120008A1
:1000300059070008000000000D0A0008DD13000841
:10004000A3010008A3010008A3010008A301000800
:10005000A3010008A3010008A3010008A3010008F0
:10006000A3010008A3010008A3010008A3010008E0
:10007000A3010008A3010008A3010008A3010008D0
:10008000A3010008A3010008A3010008A3010008C0
:10009000A3010008A3010008A3010008A3010008B0
:1000A000A3010008A3010008A3010008A3010008A0
:1000B00059140008A3010008A3010008A3010008C7
:1000C000A3010008A3010008A3010008A301000880
:1000D000A301000801160008A3010008A3010008FD
:1000E000A3010008A3010008A301000800F002F822
:1000F00000F03AF80AA090E8000C82448344AAF188
:100100000107DA4501D100F02FF8AFF2090EBAE885
:100110000F0013F0010F18BFFB1A43F0010318473B
:10012000241E0000441E0000103A24BF78C878C185
:10013000FAD8520724BF30C830C144BF04680C60ED
:10014000704700000023002400250026103A28BF35
:1001500078C1FBD8520728BF30C148BF0B60704739
:100160001FB51FBD10B510BD00F07EF81146FFF79A
:10017000F7FF01F09FFC00F0B0F803B4FFF7F2FFC7
:1001800003BC01F085FC000009488047094800478E
:10019000FEE7FEE7FEE7FEE7FEE7FEE7FEE7FEE737
:1001A000FEE7FEE704480549054A064B7047000094
:1001B000E1130008ED00000850080020500E002058
:1001C000500A0020500A00200FB4044910B503AAB9
:1001D000029800F013F810BC5DF814FB1C0000201E
:1001E00070477047704710B500F01AF8006810BDEE
:1001F00010B5044600F014F8046010BD074B70B54C
:100200000D467B4400F015F80446284600F024F81B
:1002100010B14FF0FF3070BD204670BD9318000044
:1002200000487047F007002001694A1C0261087805
:10023000704700B58FB0CDE9013100210591054926
:100240007944CDE903101146684600F032F80FB04A
:1002500000BD0000E5FFFFFF007B00F0800070475D
:1002600000487047F00700207546FFF7F9FFAE46DB
:1002700005006946534620F00700854618B020B5B2
:10028000FFF790FFBDE820404FF000064FF0000759
:100290004FF000084FF0000B21F00701AC46ACE82E
:1002A000C009ACE8C009ACE8C009ACE8C0098D469B
:1002B00070472DE9F04106460024D6E90170F56843
:1002C0008046304603E04146B847641C3046A847A4
:1002D0000028F8D12046BDE8F08110B50446AFF300
:1002E00000802046BDE81040FFF747BF00B591B041
:1002F0004FF4004000F08CFB0121084600F094FB15
:1003000001214FF4037000F0AFFB0720ADF80000AF
:1003100000208DF8030069463F4800F059FA032099
:10032000ADF8000000208DF8030069463B4800F05E
:100330004FFA3B4800F04CF93A4801903A48029095
:10034000002003904FF45E70049000200590802000
:10035000069040000790800008902020099000023D
:100360000A9000200B9001A92D4800F0D7F9012137
:100370002B4800F020F900200C9001208DF834006B
:100380008DF835004FF460200E9000200F90032070
:100390008DF840000CA923484C3800F071F8072371
:1003A000012200211F484C3800F092F80723022256
:1003B00001211C484C3800F08BF80723032202214E
:1003C00018484C3800F084F8012116484C3800F0E9
:1003D00038F8012113484C3800F028F811484C38FF
:1003E00000F0D2F800BF0F484C3800F03FF800286A
:1003F000F9D10C484C3800F0D7F800BF09484C3808
:1004000000F02AF80028F9D1012106484C3800F004
:10041000C0F811B000BD000000080140000C014010
:10042000080002404C2401403800002021B18268BD
:1004300042F00102826003E0826822F001028260E1
:10044000704721B1826842F48072826003E0826862
:1004500022F4807282607047014600208A6802F0B0
:1004600004020AB1012000E000207047014600208C
:100470008A6802F008020AB1012000E000207047FB
:1004800030B502460020002350680F4C20400D7903
:100490000C6844EA05242043506090680B4C2040CF
:1004A000D1E902542C434D7944EA4504204390603D
:1004B000D06A20F470000C7C641EE4B2234340EA4E
:1004C0000350D06230BD0000FFFEF0FFFDF7F1FFEA
:1004D000F0B504460D4600200021092D11DDE0682D
:1004E000A5F10A0606EB4607072606FA07F1884338
:1004F000A5F10A0606EB460603FA06F10843E0609A
:100500000CE0206905EB4507072606FA07F188434A
:1005100005EB450603FA06F108432061072A0FDAC6
:10052000606B561E06EB86071F2606FA07F1884306
:10053000561E06EB860605FA06F10843606322E0C4
:100540000D2A0FDA206BD61F06EB86071F2606FA48
:1005500007F18843D61F06EB860605FA06F1084325
:10056000206310E0E06AA2F10D0606EB86071F2665
:1005700006FA07F18843A2F10D0606EB860605FA96
:1005800006F10843E062F0BD816841F00801816036
:10059000704721B1826842F4A002826003E0826861
:1005A00022F4A00282607047816841F004018160FA
:1005B000704700BFFEE721B1026842F0010202600D
:1005C00004E002684FF6FE731A40026070470000B4
:1005D00001684FF6FE721140016000210160416028
:1005E0008160C1604B49884208D14A49083949684D
:1005F00041F00F01474A083A51608AE045491431F9
:10060000884208D143490839496841F0F001414A1C
:10061000083A51607DE03F492831884208D13D4980
:100620000839496841F470613A4A083A516070E00B
:1006300038493C31884208D136490839496841F483
:100640007041344A083A516063E03249503188427F
:1006500008D130490839496841F470212D4A083AD7
:10066000516056E02B496431884208D12949083944
:10067000496841F47001274A083A516049E0254928
:100680007831884208D123490839496841F07061BE
:10069000204A083A51603CE01F49884206D1011FB8
:1006A000096841F00F01021F116032E01A4914314C
:1006B000884208D11849091F096841F0F001164A1B
:1006C000121F116025E014492831884208D11249CF
:1006D000091F096841F470610F4A121F116018E088
:1006E0000D493C31884208D10B49091F096841F482
:1006F0007041094A121F11600BE0074950318842CE
:1007000007D10549091F096841F47021024A121FE7
:1007100011607047080002400804024010B5002232
:10072000026847F6F0739A430C6A8B6823430C699E
:1007300023434C6923438C692343CC6923434C6A8C
:1007400023438C6A23431A430260CB6843600B68DF
:1007500083604B68C36010BD7047000008B501217D
:100760000D2000F081F90121164800F0BDF849F68E
:100770007010ADF8000003208DF8020010208DF8F5
:1007800003006946104800F023F84FF23830ADF806
:10079000000003208DF8020010208DF80300694648
:1007A0000A4800F015F80820ADF8000003208DF885
:1007B000020004208DF803006946034800F008F8A1
:1007C00008BD00000002300000080140000C01409C
:1007D0002DE9F041024600250026002000230024D8
:1007E000002791F803C00CF00F0591F803C00CF03E
:1007F000100CBCF1000F03D091F802C04CEA0505C3
:1008000091F800C0BCF1000F31D0146800202BE03B
:100810004FF0010C0CFA00F3B1F800C00CEA03062B
:100820009E4220D183004FF00F0C0CFA03F7BC431B
:1008300005FA03FC4CEA040491F803C0BCF1280F4C
:1008400006D14FF0010C0CFA00FCC2F814C00AE00B
:1008500091F803C0BCF1480F05D14FF0010C0CFA20
:1008600000FCC2F810C0401C0828D1D31460B1F8B5
:1008700000C0BCF1FF0F34DD546800202EE000F111
:10088000080C4FF0010808FA0CF3B1F800C00CEAAC
:1008900003069E4221D183004FF00F0C0CFA03F7A0
:1008A000BC4305FA03FC4CEA040491F803C0BCF114
:1008B000280F05D100F1080C08FA0CF8C2F81480D2
:1008C00091F803C0BCF1480F07D100F1080C4FF0BC
:1008D000010808FA0CF8C2F81080401C0828CED392
:1008E0005460BDE8F0810000F0B50A460023002402
:1008F0000021002500F00046B6F1004F02D11D4E48
:10090000F16901E01B4E7168C0F3034583B200F446
:100910004016B6F5401F08D121F07061154E76687B
:1009200026F07066134F7E6012E000F48016B6F574
:10093000801F06D1032606FA05F4A14341F0706139
:1009400006E0460D360103FA06F6B14341F0706148
:1009500022B1460D360103FA06F6314300F0004697
:10096000B6F1004F02D1034EF16101E0014E71601A
:10097000F0BD0000000001400246002093680B40DB
:100980000BB1012000E00020704741617047016118
:10099000704700BFFEE700BFFEE7704770B500215B
:1009A00000230F22C47804B3154C246804F4E064D7
:1009B000C4F5E064210AC1F10403CA40447804FA92
:1009C00003F184781440214309010E4C0678A155A7
:1009D000047804F01F050124AC4005786D11AD00CA
:1009E00005F1E025C5F8004109E0047804F01F0591
:1009F0000124AC40044D0678761145F8264070BDC0
:100A00000CED00E000E400E080E100E07047000051
:100A100001460020034A506820F4404008435060DB
:100A2000704700000010024029B1064A5269024393
:100A3000044B5A6104E0034A52698243014B5A61F4
:100A4000704700000010024029B1064AD2690243F3
:100A5000044BDA6104E0034AD2698243014BDA6154
:100A6000704700000010024029B1064A9269024313
:100A7000044B9A6104E0034A92698243014B9A61F4
:100A8000704700000010024030B500210022002411
:100A900000232D4D6D6805F00C0121B1042905D00E
:100AA000082923D105E0294D056022E0274D056086
:100AB0001FE0254D6D6805F47012234D6D6805F437
:100AC0008034022505EB92421CB9214D5543056047
:100AD0000BE01D4D6D6805F400351DB11C4D5543EF
:100AE000056002E0194D5543056002E0174D0560B1
:100AF00000BF00BF144D6D6805F0F0010909154DE8
:100B00006B5C0568DD4045600F4D6D6805F4E06184
:100B1000090A104D6B5C4568DD4085600A4D6D68C3
:100B200005F46051C90A0B4D6B5C4568DD40C5603A
:100B3000054D6D6805F44041890B074D6B5CC56838
:100B4000B5FBF3F5056130BD0010024000127A00DC
:100B500000093D00000000201000002010B54FF4F7
:100B600080510948FFF711FF4FF480410648FFF715
:100B70000CFF4FF400410448FFF707FF4FF400510A
:100B80000148FFF704FF10BD000C014010B54FF401
:100B900000410948FFF7F9FE4FF480410648FFF78E
:100BA000F4FE4FF400510448FFF7EFFE4FF480517C
:100BB0000148FFF7ECFE10BD000C014010B54FF4EA
:100BC00000410948FFF7E1FE4FF480410648FFF776
:100BD000DCFE4FF480510448FFF7D9FE4FF400517A
:100BE0000148FFF7D4FE10BD000C014010B54FF4D2
:100BF00080410948FFF7C9FE4FF480510648FFF7CE
:100C0000C6FE4FF400510448FFF7C1FE4FF4004107
:100C10000148FFF7BCFE10BD000C014010B54FF4B9
:100C200000410948FFF7B1FE4FF480410648FFF745
:100C3000AEFE4FF400510448FFF7A9FE4FF4805177
:100C40000148FFF7A4FE10BD000C014010B54FF4A1
:100C500000410948FFF799FE4FF400510648FFF79D
:100C600096FE4FF480510448FFF791FE4FF4804107
:100C70000148FFF78CFE10BD000C014010B54FF489
:100C800000410948FFF781FE4FF400510648FFF785
:100C90007CFE4FF480510448FFF779FE4FF4804109
:100CA0000148FFF774FE10BD000C014010B54FF471
:100CB00080410948FFF769FE4FF480510648FFF76D
:100CC00066FE4FF400510448FFF761FE4FF4004107
:100CD0000148FFF75CFE10BD000C014010B54FF459
:100CE00080410948FFF751FE4FF480510648FFF755
:100CF0004CFE4FF400510448FFF749FE4FF4004109
:100D00000148FFF744FE10BD000C014010B54FF440
:100D100080510948FFF739FE4FF400510648FFF7AC
:100D200034FE4FF480410448FFF72FFE4FF400419A
:100D30000148FFF72AFE10BD000C014010B5FFF777
:100D400085FF4FF480711D48FFF721FE20211B48CD
:100D5000FFF71BFE4FF400411948FFF716FE4FF452
:100D600000711648FFF711FE16480078012806D1D9
:100D700015480078012802D1144908701DE0114877
:100D80000078012806D11048007818B902200F49D0
:100D9000087012E00B48007860B90B480078012811
:100DA00008D1FFF7DBFE142000F04AFB04200749BE
:100DB000087002E000200549087010BD000C0140D9
:100DC00000080140360000203700002034000020D9
:100DD00010B5FFF753FF4FF480711E48FFF7D7FDA2
:100DE00020211C48FFF7D1FD4FF400411A48FFF7BE
:100DF000CCFD4FF400711748FFF7C7FD1748007886
:100E0000012806D116480078012802D1154908703A
:100E10001FE012480078012806D11148007818B95F
:100E200002201049087014E00C48007870B90C4892
:100E3000007801280AD1FFF7F1FEFFF78FFE14209A
:100E400000F0FEFA04200749087002E0002005497E
:100E5000087010BD000C0140000801403600002061
:100E6000370000203400002010B5FFF707FF4FF4D3
:100E700080712448FFF789FD20212248FFF787FD74
:100E80004FF400412048FFF780FD4FF400711D48EA
:100E9000FFF77BFD1D480078012812D11C4800781F
:100EA00001280ED1FFF7BAFE4FF47A7000F0C8FAAD
:100EB000FFF784FE142000F0C3FA032015490870E0
:100EC0001FE01248007870B91148007801280AD153
:100ED000FFF7A4FEFFF742FE142000F0B1FA042051
:100EE0000C4908700DE009480078012806D108482F
:100EF000007818B902200749087002E0002005496F
:100F0000087010BD000C01400008014036000020B0
:100F1000370000203400002010B5FFF7C7FE4FF463
:100F200080711E48FFF731FD20211C48FFF72DFD81
:100F30004FF400411A48FFF72AFD4FF4007117489B
:100F4000FFF723FD17480078012807D116480078DD
:100F5000012803D10320154908701DE011480078CD
:100F600038B911480078012803D104200F490870CE
:100F700012E00C48007801280BD10B48007840B9EA
:100F8000FFF704FE142000F05BFA02200749087006
:100F900002E000200549087010BD0000000C01406F
:100FA00000080140360000203700002034000020F7
:100FB00010B5FFF793FE4FF480712448FFF7E5FC6E
:100FC00020212248FFF7E1FC4FF400412048FFF7C1
:100FD000DCFC4FF400711D48FFF7D9FC1D48007878
:100FE000012812D11C48007801280ED1FFF7FEFD20
:100FF0004FF47A7000F024FAFFF7E0FD142000F0BF
:101000001FFA0120154908701FE0124800780128D6
:101010000DD11148007850B9FFF7E8FDFFF7B6FD94
:10102000142000F00DFA02200C4908700DE0094868
:10103000007838B908480078012803D1042007490E
:10104000087002E000200549087010BD000C014046
:101050000008014036000020370000203400002046
:1010600010B5FFF73BFE4FF480711F48FFF78DFC72
:1010700020211D48FFF789FC4FF400411B48FFF772
:1010800086FC4FF400711848FFF77FFC1848007881
:10109000012807D117480078012803D103201649F9
:1010A00008701FE01248007838B91248007801280B
:1010B00003D104201049087014E00D48007801287D
:1010C0000DD10C48007850B9FFF790FDFFF75EFD99
:1010D000142000F0B5F902200749087002E0002052
:1010E0000549087010BD0000000C014000080140D7
:1010F00036000020370000203400002010B5FFF734
:1011000005FE4FF480711B48FFF73FFC2021194872
:10111000FFF73BFC4FF400411748FFF736FC4FF454
:1011200000711448FFF731FC14480078012806D1FB
:1011300013480078012802D11249087018E00F48BE
:101140000078012806D10E48007818B902200D4910
:1011500008700DE00948007838B90948007801287E
:1011600003D104200749087002E0002005490870F7
:1011700010BD0000000C01400008014036000020B6
:10118000370000203400002010B5FFF7BFFD4FF4FA
:1011900080711B48FFF7F9FB20211948FFF7F5FB89
:1011A0004FF400411748FFF7F0FB4FF4007114486B
:1011B000FFF7EBFB14480078012807D113480078AB
:1011C000012803D103201249087018E00E48007866
:1011D000012806D10D48007818B902200C49087082
:1011E0000DE00948007838B908480078012803D193
:1011F00004200749087002E000200549087010BD6E
:10120000000C01400008014036000020370000209B
:10121000340000207047000010B508210C48FFF78B
:10122000ABFB0C490978884210D0142000F008F973
:1012300008210748FFF7A0FB06490978884205D036
:1012400008210348FFF798FB0249087010BD000011
:10125000000801403500002010B500F001F810BD75
:101260000CB50020019000903348006840F48030B5
:101270003149086000BF3048006800F40030009039
:101280000198401C0190009818B90198B0F5005FD2
:10129000F1D12948006800F4003010B1012000901D
:1012A00001E0002000900098012843D12348006805
:1012B00040F01000214908600846006820F0030053
:1012C00008600846006840F0020008601A4840685C
:1012D000194948600846406848600846406840F43C
:1012E000806048600846406820F47C1048600846EA
:1012F000406840F4E81048600846006840F080709C
:10130000086000BF0C48006800F000700028F9D0A9
:101310000948406820F003000749486008464068D3
:1013200040F00200486000BF0348406800F00C0035
:101330000828F9D10CBD0000001002400020024036
:1013400010B54FF480710248FFF71FFB10BD00007D
:101350000008014010B51F480078D0B91E48007839
:1013600030B1012807D0022808D004280CD108E0A9
:10137000FFF7C4FE0CE0FFF7E1FC09E0FFF728FDF2
:1013800006E0FFF715FE03E000201349087000BFD8
:101390001EE01048007801281AD10F48007830B1BB
:1013A000022807D0032808D004280CD108E0FFF752
:1013B000EBFE0CE0FFF758FD09E0FFF7ADFD06E09E
:1013C000FFF74EFE03E000200349087000BF00BF96
:1013D00010BD0000350000203400002070470000E0
:1013E00010B51348006840F0010011490860084634
:1013F0004068104908400E494860084600680E4998
:1014000008400B4908600846006820F48020086006
:101410000846406820F4FE0048604FF41F008860D2
:10142000FFF71AFF4FF000600449086010BD00008C
:10143000001002400000FFF8FFFFF6FE08ED00E09C
:101440000021044A116000BF024909688142FBD3B0
:10145000704700001400002010B50121880700F03B
:1014600034F8E8B10121880700F020F80D48006841
:10147000401C0C49086008460068B0F1805F01D349
:101480000020086008480068401C074908600846BA
:10149000006842F21071884202D9002002490860B7
:1014A00010BD00001400002018000020CA43028272
:1014B000704721B1028842F00102028004E00288F4
:1014C0004FF6FE731A400280704730B50246002086
:1014D00000230024158A05EA0103958905EA010421
:1014E00013B10CB1012000E0002030BD1AB1838996
:1014F0000B43838102E083898B4383817047000023
:10150000002202881D4B98420ED01D4B98420BD0F2
:10151000B0F1804F08D01B4B984205D01A4B98422F
:1015200002D01A4B984204D14FF68F731A404B8861
:101530001A43174B984207D0164B984204D04FF6E7
:10154000FF431A40CB881A4302808B8883850B881F
:1015500003850A4B98420BD0094B984208D00E4B9A
:10156000984205D00D4B984202D00D4B984201D1C4
:101570000B7A03860123838270470000002C014010
:10158000003401400004004000080040000C00400E
:1015900000100040001400400040014000440140A1
:1015A000004801401FB501210846FFF74DFA1C20F5
:1015B0008DF80C0000208DF80D0001208DF80E0034
:1015C0008DF80F0003A8FFF7E9F96420ADF80400D7
:1015D0004720ADF800000020ADF80600ADF802008D
:1015E00069464FF08040FFF78BFF012211469007BC
:1015F000FFF77CFF01218807FFF75BFF1FBD00009D
:1016000010B540F225511D4800F04AF810B31B48B0
:1016100000F002F9C4B21A48008800F40040C8B9CA
:101620001748008800F4804060B10A2C03D00020E5
:101630001349088020E01248008840F40040104917
:10164000088019E00D2C06D10D48008840F4804038
:101650000B49088010E00A480088C0F30D000949D2
:101660000C5407480088401C05490880084600883B
:10167000C72801DD0020088010BD000000380140AF
:10168000200000202807002021B1828942F4005266
:10169000828104E082894DF6FF731A40828170478F
:1016A00070B50246002400230025002040F66A168B
:1016B000B14200D100BFC1F3421501F01F03012662
:1016C00006FA03F3012D02D19689334006E0022D7C
:1016D00002D1168A334001E0968A33400C1201266B
:1016E00006FA04F41688344013B10CB1012000E06E
:1016F000002070BDF0B50346002400260025002020
:1017000040F66A17B94200D100BF1846C1F342142F
:1017100001F01F06012707FA06F5012C01D10C3054
:1017200004E0022C01D1103000E014301AB1076837
:101730002F43076002E00768AF430760F0BD000079
:101740002DE9F04786B005460E460024A24600BFAC
:10175000A1460027B08900B100BF2F462C8A4CF665
:10176000FF700440F08804432C82AC894EF6F310DD
:101770000440B08831890843718908430443AC812F
:10178000AC8A4FF6FF400440B0890443AC8201A804
:10179000FFF77AF91F48874202D1DDF810A001E077
:1017A000DDF80CA0A88900F4004040B10AEBCA00A3
:1017B00000EB0A1031684900B0FBF1F807E00AEBD2
:1017C000CA0000EB0A1031688900B0FBF1F8642010
:1017D000B8FBF0F004012009642101FB1089A889FD
:1017E00000F4004040B1322000EBC900B0FBF1F042
:1017F00000F00700044308E0322000EB09106421E8
:10180000B0FBF1F000F00F0004432C8106B0BDE8FE
:10181000F08700000038014001468888C0F30800C6
:10182000704700BFFEE700002DE9F04F87B00024AD
:101830000027A0460020059081468246049042F28F
:1018400010752E4600BF2FE0894830F81400A0F52F
:101850000060874931F81410A1F5006100FB01997F
:10186000834830F8140040F29C71884207DD8048BC
:1018700030F8140040F66401884200DA7F1C42F21E
:10188000107085420FD17A4830F81400A0F500603E
:10189000142808DA764830F81400A0F5006010F13A
:1018A000140F00DD2546E41CB4F55E7FCCD34FF465
:1018B0009470B9FBF0FB584600F0FDF9CDE900014A
:1018C00000F056F9CDE9020100F0C8F96949086055
:1018D00008460068B0F5487F07D30846006840F224
:1018E000DC51884201D80F2F0BD9002062490870C3
:1018F00010216248FFF749F820216048FFF747F8B8
:101900000AE001205C49087010215C48FFF73FF8AD
:1019100020215A48FFF739F801242FE0544830F8C5
:101920001410A1F5006130F81400A0F5006001FB6F
:1019300000AA4F4830F8140040F29C71884208DD3C
:101940004B4830F8140040F66401884201DA08F18F
:10195000010842F2107086420FD1454830F8140059
:10196000A0F50060142808DA414830F81400A0F50A
:10197000006010F1140F00DD2646E41CB4F55E7F14
:10198000CCD34FF49470BAFBF0FB584600F093F9B7
:10199000CDE9000100F0ECF8CDE9020100F05EF9BC
:1019A0003749086008460068B0F5487F08D3084604
:1019B000006840F2DC51884202D8B8F10F0F0CD910
:1019C00000203049087040212C48FEF7DEFF4FF41C
:1019D00000612A48FEF7DBFF0BE00120294908706F
:1019E00040212648FEF7D3FF4FF400612348FEF75D
:1019F000CCFF25480068642803DD64202249086084
:101A000019E021480068002803DA00201E49086018
:101A100011E0A81B1E2803DCA81B10F11E0F05DA1D
:101A200019480068401C1849086004E0164800681E
:101A3000401E154908601448006846280CDD11480E
:101A40000078012808D10C480078012804D1102121
:101A50000E48FEF79CFF07E00B4800681E2803DADB
:101A600010210A48FEF791FF07B0BDE8F08F000093
:101A7000380000202400002036000020000801402B
:101A8000280000203700002030000020000C01401A
:101A9000014600BF7047000000BF054A128802F0EF
:101AA0004002002AF9D0C2B2014B1B1D1A807047B8
:101AB0000038014000BFFEF751FEFFF727F9FFF79E
:101AC0003FFC10212348FEF760FF40212148FEF72C
:101AD0005CFF4FF400411F48FEF757FF4FF4807141
:101AE0001D48FEF752FF20211A48FEF74EFF4FF423
:101AF00000611848FEF749FF4FF400711648FEF7E1
:101B000044FF20211448FEF740FF10211248FEF741
:101B10003CFF08211048FEF738FFFFF743FDFEF7B2
:101B2000E5FB4FF4E13000F049F80CA0FEF74CFB68
:101B30000EE0FFF779FEFFF70DFC0C480068B0F5EA
:101B4000FA7F05D240F2F51008490860FFF764FB00
:101B5000EFE7000000080140000C014048656C6C94
:101B60006F776F726C6421210D0A0000180000204D
:101B70002DE9F04106460F4600F0FEF8041E0D4622
:101B800018BF0120284320F00040C0F17F6000F121
:101B9000E040C00F0ED0301C18BF0120384320F0A9
:101BA0000040C0F17F6000F1E040C00F04BF0120A1
:101BB000FEF71EFB20462946BDE8F08110B586B031
:101BC0000446012144F20400FEF74EFF4FF400707A
:101BD000ADF8140003208DF8160018208DF81700BA
:101BE00005A91C48FEF7F4FD4FF48060ADF8140021
:101BF00004208DF8170005A91648FEF7E9FD2520F9
:101C00008DF8000003208DF801008DF802000120FE
:101C10008DF803006846FEF7C1FE01940020ADF880
:101C20000800ADF80A00ADF80C00ADF810000C206B
:101C3000ADF80E0001A90848FFF782FD012240F22D
:101C400025510548FFF756FD01210348FFF71CFD0C
:101C500006B010BD00080140003801404FEA1153A2
:101C6000A3F58063D3F11E03A8BFD3F1200C08DBDA
:101C70004FF0004242EAC12252EA505232FA03F0D7
:101C8000704709420BD4102BC4BF0020704703F5E6
:101C9000787CBCF1FF3F05D04FF0FF3070474FF02C
:101CA0000000704770B500F019F800BF4992248019
:101CB00000207047F0E7B0FA80F310FA03F10AD081
:101CC000C3F11D0303F580634FEA41504FEA03520D
:101CD00002EBD12170474FF0000070470EF1020E69
:101CE0002EF0030E5EF8046B364205D4012A43EB56
:101CF000030515F5001F12D8012841EB010C1CF556
:101D0000001F0CD80ED14FEAD17C15F5001F0CEB4B
:101D10004C0C0CF1020C08BF4CEBD37C04E04FF0F0
:101D2000080C01E04FEAD37C0CEB4C0526FA05F6D3
:101D300006F00706B6F1040C06D20EEB860CBDE8E1
:101D400070404CF0010C6047DFE80CF0090B020218
:101D50004FF000414FF00000A1F5002170BD194681
:101D60001046012851EB010418BFD4F5001484BFBC
:101D7000002001F0004170BD2DE9F04101F5801C0B
:101D8000BCF5001FC0F2C3804FEA115C21EA0C5180
:101D90000CF1FD0C41F480115FEA5C0C0CF5C07C89
:101DA00001D3400049413DA4890241EA9051870294
:101DB0008E0E0A0CA45D04FB04F602FB06F6C6F1C7
:101DC0004046A4FB0662F60D46EA422606FB06F4F0
:101DD000A4FB01235242C3F1404338BF5B1EA6FB64
:101DE00002420024E6FB0324D20B42EA4446A6FB4F
:101DF0000623A1FB02E2A3FB07E4A4184FF00002B4
:101E000052F10002E3FB01426442C2F1404E38BF8E
:101E1000AEF1010EA6FB04234FF00002E6FB0E32EA
:101E2000A2FB03464FF00004B61954F10004E2FB94
:101E30000264A1FB06E6A4FB07E816EB08064FF0D8
:101E4000000858F10008E4FB01687642C8F14058E8
:101E500038BFA8F10108A2FB06E4A3FB08E52D1991
:101E60004FF0000454F10004E2FB0854A1FB05E626
:101E7000A7FB04E818EB06084FF0000656F1000631
:101E8000E1FB048618F1200556F10006A809A8F127
:101E90001B08B10908F03F08B8F10A0F40EA866054
:101EA0001CD901EB0C51BDE8F08100BFFCF5EEE858
:101EB000E2DDD8D3CFCBC7C3C0BDB9B6B4B1AEACE9
:101EC000A9A7A5A3A19F9D9B9A9896959392908F61
:101ED0008D8C8B898887868584838281A0FB0068AE
:101EE00000FB01F208EB4208B8EB872807D534184D
:101EF00058EB0104D5D5401C51F10001D1E7341A4B
:101F000078EB0104CDD4401E71F10001C9E75FEA0E
:101F10004C0C5FEA9C5C0DD105D34FF0000001F042
:101F20000041BDE8F081BDE8F04170B5FFF7D6FE95
:101F30006DDBFFBEBDE8F0414FF000000049704787
:101F40000000F87F641F0008000000203800000037
:101F5000280100089C1F000838000020180E00000F
:101F60004401000800000000010203040102030410
:101F7000060708090204060800000000000000002F
:101F80000000000000000000000000000000000051
:0C1F900000000000000000000000000045
:04000005080000ED02
:00000001FF
