:020000040800F2
:10000000600E0020910100080F0B0008070B00088C
:100010000B0B00080F070008431A0008000000003F
:10002000000000000000000000000000191400089B
:10003000B508000800000000810B0008FD1500084D
:10004000AB010008AB010008AB010008AB010008E0
:10005000AB010008AB010008AB010008AB010008D0
:10006000AB010008AB010008AB010008AB010008C0
:10007000AB010008AB010008AB010008AB010008B0
:10008000AB010008AB010008AB010008AB010008A0
:10009000AB010008AB010008AB010008AB01000890
:1000A000AB010008AB010008AB010008AB01000880
:1000B00079160008AB010008AB010008AB0100088D
:1000C000AB010008AB010008AB010008AB01000860
:1000D000AB01000821180008AB010008AB010008C3
:1000E000AB010008AB010008AB01000800F002F80A
:1000F00000F03FF80AA090E8000C82448344AAF183
:100100000107DA4501D100F034F8AFF2090EBAE880
:100110000F0013F0010F18BFFB1A43F0010318473B
:10012000F820000018210000103A24BF78C878C1D8
:10013000FAD8520724BF30C830C144BF04680C60ED
:10014000704700000023002400250026103A28BF35
:1001500078C1FBD8520728BF30C148BF0B60704739
:10016000642900F07580002070471FB51FBD10B5D1
:1001700010BD00F047F91146FFF7F7FF01F002FE4E
:1001800000F065F903B4FFF7F2FF03BC01F0E8FDEE
:100190000948804709480047FEE7FEE7FEE7FEE71B
:1001A000FEE7FEE7FEE7FEE7FEE7FEE70448054957
:1001B000054A064B7047000001160008ED000008D4
:1001C00060080020600E0020600A0020600A002005
:1001D0000FB4044910B503AA029800F0DDF810BC72
:1001E0005DF814FB1C0000202DE9F0410E4604468A
:1001F000002020622046E168884730B3252805D0DA
:10020000D4E901219047206A401CF2E7E1682046CA
:1002100000278847050018D0A5F14100192802D809
:1002200020354FF400673246294620462760FFF705
:1002300097FF40B1012804D0F61D26F007060836C6
:10024000D8E7361DD6E72846DAE7206ABDE8F08110
:100250002DE9F0410646002410687529314616A59F
:1002600010D0AFF30080002802DA404213A507E067
:1002700031688A0701D512A502E0490704D511A506
:10028000012401E0AFF3008000210A2206F12407D7
:1002900009E0B0FBF2FCB0FBF2F302FB1C003030D3
:1002A00078541846491C0028F3D123462A46304684
:1002B000BDE8F04100F016B8000000002D0000007D
:1002C0002B0000002000000070477047704710B5F9
:1002D00000F074F8006810BD10B5044600F06EF828
:1002E000046010BD2DE9F0470D469946924604463C
:1002F00000F124080168880604D5E06921F01001A6
:10030000216000E00120A84201DD471B00E000273A
:10031000A1697A1902EB0900081AA0612078C006C9
:1003200002D42046AFF30080002608E0D4E9012182
:100330001AF806009047206A401C761C20624E4541
:10034000F4DB2078C0060AD52046AFF3008006E033
:10035000D4E9012130209047206A401C2062381ED9
:10036000A7F10107F4DC07E0D4E9012118F8050042
:100370009047206A401C2062281EA5F10105F3DC8D
:100380002046AFF300802078000602D50220BDE8A9
:10039000F0870120FBE70000074B70B50D467B445A
:1003A00000F015F80446284600F024F810B14FF08C
:1003B000FF3070BD204670BDC7190000004870476F
:1003C0000008002001694A1C02610878704700B5E6
:1003D0008FB0CDE901310021059105497944CDE97E
:1003E000031011466846FFF7FFFE0FB000BD000086
:1003F000E5FFFFFF007B00F080007047004870477A
:10040000000800207546FFF7F9FFAE460500694673
:10041000534620F00700854618B020B5FFF7C6FE0A
:10042000BDE820404FF000064FF000074FF00008F5
:100430004FF0000B21F00701AC46ACE8C009ACE876
:10044000C009ACE8C009ACE8C0098D46704710B5DA
:100450000446AFF300802046BDE81040FFF792BE8F
:1004600000B591B04FF4004000F0A8FB0121084610
:1004700000F0B0FB01214FF4017000F0CBFB07202E
:10048000ADF8000000208DF8030069463A4800F0FE
:1004900059FA3A4800F04AF939480190394802902F
:1004A000002003904FF45E7004900020059080209F
:1004B00006904000079080000890202009900002DC
:1004C0000A9000200B9001A92C4800F0D5F90121D9
:1004D0002A4800F01EF900200C9001208DF834000D
:1004E0008DF835004FF460200E9000200F9003200F
:1004F0008DF840000CA922484C3800F06FF8072313
:10050000012200211E484C3800F090F807230222F7
:1005100001211B484C3800F089F8072303220221EF
:1005200017484C3800F082F8012115484C3800F08B
:1005300036F8012112484C3800F026F810484C38A3
:1005400000F0D0F800BF0E484C3800F03DF800280D
:10055000F9D10B484C3800F0D5F800BF08484C38AA
:1005600000F028F80028F9D1012105484C3800F0A6
:10057000BEF811B000BD00000008014008000240B4
:100580004C2401404800002021B1826842F0010261
:10059000826003E0826822F001028260704721B12C
:1005A000826842F48072826003E0826822F4807282
:1005B00082607047014600208A6802F004020AB196
:1005C000012000E000207047014600208A6802F008
:1005D00008020AB1012000E00020704730B5024651
:1005E0000020002350680F4C20400D790C6844EA2D
:1005F00005242043506090680B4C2040D1E9025400
:100600002C434D7944EA450420439060D06A20F49D
:1006100070000C7C641EE4B2234340EA0350D062B5
:1006200030BD0000FFFEF0FFFDF7F1FFF0B504461E
:100630000D4600200021092D11DDE068A5F10A0614
:1006400006EB4607072606FA07F18843A5F10A06D6
:1006500006EB460603FA06F10843E0600CE0206969
:1006600005EB4507072606FA07F1884305EB450623
:1006700003FA06F108432061072A0FDA606B561E61
:1006800006EB86071F2606FA07F18843561E06EB7F
:10069000860605FA06F10843606322E00D2A0FDAA8
:1006A000206BD61F06EB86071F2606FA07F1884344
:1006B000D61F06EB860605FA06F10843206310E014
:1006C000E06AA2F10D0606EB86071F2606FA07F17F
:1006D0008843A2F10D0606EB860605FA06F10843EB
:1006E000E062F0BD816841F008018160704721B18E
:1006F000826842F4A002826003E0826822F4A002D1
:1007000082607047816841F004018160704700BFDA
:10071000FEE721B1026842F00102026004E00268D3
:100720004FF6FE731A4002607047000001684FF6F2
:10073000FE72114001600021016041608160C16072
:100740004B49884208D14A490839496841F00F01AC
:10075000474A083A51608AE045491431884208D135
:1007600043490839496841F0F001414A083A51606B
:100770007DE03F492831884208D13D490839496820
:1007800041F470613A4A083A516070E038493C31AE
:10079000884208D136490839496841F47041344AE1
:1007A000083A516063E032495031884208D13049FB
:1007B0000839496841F470212D4A083A516056E0E1
:1007C0002B496431884208D129490839496841F4E4
:1007D0007001274A083A516049E02549783188423A
:1007E00008D123490839496841F07061204A083A24
:1007F00051603CE01F49884206D1011F096841F061
:100800000F01021F116032E01A491431884208D1E9
:100810001849091F096841F0F001164A121F1160BA
:1008200025E014492831884208D11249091F096876
:1008300041F470610F4A121F116018E00D493C31FC
:10084000884208D10B49091F096841F47041094ADF
:10085000121F11600BE007495031884207D105494A
:10086000091F096841F47021024A121F1160704784
:10087000080002400804024010B50022026847F652
:10088000F0739A430C6A8B6823430C6923434C69C9
:1008900023438C692343CC6923434C6A23438C6AEA
:1008A00023431A430260CB6843600B6883604B6844
:1008B000C36010BD7047000008B501210D2000F095
:1008C000A9F901211C4800F0C9F849F67010ADF8EB
:1008D000000003208DF8020010208DF80300694607
:1008E000164800F02FF84FF23830ADF80000032022
:1008F0008DF8020010208DF803006946104800F0C2
:1009000021F80820ADF8000003208DF80200042033
:100910008DF803006946094800F014F80320ADF88B
:1009200000008DF8020004208DF803006946044899
:1009300000F008F808BD0000000230000008014087
:10094000000C01402DE9F041024600250026002060
:1009500000230024002791F803C00CF00F0591F844
:1009600003C00CF0100CBCF1000F03D091F802C0D2
:100970004CEA050591F800C0BCF1000F31D01468B5
:1009800000202BE04FF0010C0CFA00F3B1F800C08E
:100990000CEA03069E4220D183004FF00F0C0CFAA4
:1009A00003F7BC4305FA03FC4CEA040491F803C0C6
:1009B000BCF1280F06D14FF0010C0CFA00FCC2F874
:1009C00014C00AE091F803C0BCF1480F05D14FF004
:1009D000010C0CFA00FCC2F810C0401C0828D1D34E
:1009E0001460B1F800C0BCF1FF0F34DD5468002082
:1009F0002EE000F1080C4FF0010808FA0CF3B1F8F2
:100A000000C00CEA03069E4221D183004FF00F0C78
:100A10000CFA03F7BC4305FA03FC4CEA040491F812
:100A200003C0BCF1280F05D100F1080C08FA0CF83E
:100A3000C2F8148091F803C0BCF1480F07D100F14F
:100A4000080C4FF0010808FA0CF8C2F81080401C9E
:100A50000828CED35460BDE8F0810000F0B50A4606
:100A6000002300240021002500F00046B6F1004FCD
:100A700002D11D4EF16901E01B4E7168C0F30345C0
:100A800083B200F44016B6F5401F08D121F0706122
:100A9000154E766826F07066134F7E6012E000F403
:100AA0008016B6F5801F06D1032606FA05F4A14389
:100AB00041F0706106E0460D360103FA06F6B143D7
:100AC00041F0706122B1460D360103FA06F631435A
:100AD00000F00046B6F1004F02D1034EF16101E093
:100AE000014E7160F0BD0000000001400246002090
:100AF00093680B400BB1012000E00020704741617A
:100B000070470161704700BFFEE700BFFEE7704716
:100B100070B5002100230F22C47804B3154C24685B
:100B200004F4E064C4F5E064210AC1F10403CA409E
:100B3000447804FA03F184781440214309010E4CEF
:100B40000678A155047804F01F050124AC4005780F
:100B50006D11AD0005F1E025C5F8004109E004780C
:100B600004F01F050124AC40044D0678761145F8C9
:100B7000264070BD0CED00E000E400E080E100E004
:100B80007047000010B501210B48FFF7AFFF58B1C7
:100B900002210948FFF7AAFF30B100F0D3FC082179
:100BA0000548FFF7ACFF05E000F0D6FC082102483D
:100BB000FFF7A7FF10BD0000000C01400146002018
:100BC000034A506820F440400843506070470000DA
:100BD0000010024029B1064A52690243044B5A618F
:100BE00004E0034A52698243014B5A617047000096
:100BF0000010024029B1064AD2690243044BDA616F
:100C000004E0034AD2698243014BDA617047000075
:100C10000010024029B1064A92690243044B9A61CE
:100C200004E0034A92698243014B9A6170470000D5
:100C30000010024030B500210022002400232D4D79
:100C40006D6805F00C0121B1042905D0082923D1D4
:100C500005E0294D056022E0274D05601FE0254D88
:100C60006D6805F47012234D6D6805F4803402251B
:100C700005EB92421CB9214D554305600BE01D4D1B
:100C80006D6805F400351DB11C4D5543056002E04B
:100C9000194D5543056002E0174D056000BF00BFC8
:100CA000144D6D6805F0F0010909154D6B5C056880
:100CB000DD4045600F4D6D6805F4E061090A104D97
:100CC0006B5C4568DD4085600A4D6D6805F46051D8
:100CD000C90A0B4D6B5C4568DD40C560054D6D680C
:100CE00005F44041890B074D6B5CC568B5FBF3F516
:100CF000056130BD0010024000127A0000093D007D
:100D0000000000201000002010B54FF48051094869
:100D1000FFF7F5FE4FF480410648FFF7F0FE4FF471
:100D200000410448FFF7EBFE4FF400510148FFF784
:100D3000E8FE10BD000C014010B54FF40041094819
:100D4000FFF7DDFE4FF480410648FFF7D8FE4FF471
:100D500000510448FFF7D3FE4FF480510148FFF7DC
:100D6000D0FE10BD000C014010B54FF40041094801
:100D7000FFF7C5FE4FF480410648FFF7C0FE4FF471
:100D800080510448FFF7BDFE4FF400510148FFF7C2
:100D9000B8FE10BD000C014010B54FF48041094869
:100DA000FFF7ADFE4FF480510648FFF7AAFE4FF45F
:100DB00000510448FFF7A5FE4FF400410148FFF73A
:100DC000A0FE10BD000C014010B54FF400410948D1
:100DD000FFF795FE4FF480410648FFF792FE4FF46F
:100DE00000510448FFF78DFE4FF480510148FFF792
:100DF00088FE10BD000C014010B54FF400410948B9
:100E0000FFF77DFE4FF400510648FFF77AFE4FF4DE
:100E100080510448FFF775FE4FF480410148FFF709
:100E200070FE10BD000C014010B54FF400410948A0
:100E3000FFF765FE4FF400510648FFF760FE4FF4E0
:100E400080510448FFF75DFE4FF480410148FFF7F1
:100E500058FE10BD000C014010B54FF48041094808
:100E6000FFF74DFE4FF480510648FFF74AFE4FF45E
:100E700000510448FFF745FE4FF400410148FFF7D9
:100E800040FE10BD000C014010B54FF480410948F0
:100E9000FFF735FE4FF480510648FFF730FE4FF460
:100EA00000510448FFF72DFE4FF400410148FFF7C1
:100EB00028FE10BD000C014010B54FF480510948C8
:100EC000FFF71DFE4FF400510648FFF718FE4FF4E0
:100ED00080410448FFF713FE4FF400410148FFF73B
:100EE0000EFE10BD000C014010B5FFF785FF4FF45A
:100EF00080711D48FFF705FE20211B48FFF7FFFD0D
:100F00004FF400411948FFF7FAFD4FF400711648FD
:100F1000FFF7F5FD16480078012806D1154800783E
:100F2000012802D1144908701DE0114800780128F9
:100F300006D11048007818B902200F49087012E055
:100F40000B48007860B90B480078012808D1FFF7FA
:100F5000DBFE282000F084FB04200749087002E033
:100F600000200549087010BD000C01400008014038
:100F700046000020470000204400002010B5FFF785
:100F8000F3FE462000F06CFB03200149087010BD01
:100F90004400002010B5FFF747FF4FF480711E4852
:100FA000FFF7AFFD20211C48FFF7A9FD4FF40041DA
:100FB0001A48FFF7A4FD4FF400711748FFF79FFD93
:100FC00017480078012806D116480078012802D178
:100FD000154908701FE012480078012806D1114811
:100FE000007818B902201049087014E00C48007805
:100FF00070B90C48007801280AD1FFF7E5FEFFF729
:1010000083FE282000F02CFB04200749087002E032
:1010100000200549087010BD000C01400008014087
:1010200046000020470000204400002010B5FFF7D4
:10103000FBFE4FF480712448FFF761FD2021224818
:10104000FFF75FFD4FF400412048FFF758FD4FF4D4
:1010500000711D48FFF753FD1D480078012812D18B
:101060001C48007801280ED1FFF7AEFE4FF47A70CD
:1010700000F0F6FAFFF778FE282000F0F1FA0320DE
:10108000154908701FE01248007870B911480078BF
:1010900001280AD1FFF798FEFFF736FE282000F05E
:1010A000DFFA04200C4908700DE009480078012897
:1010B00006D10848007818B902200749087002E0F4
:1010C00000200549087010BD000C014000080140D7
:1010D00046000020470000204400002010B5FFF724
:1010E00043FE462000F0BCFA01200149087010BD03
:1010F0004400002010B5FFF7AFFE4FF480711E488A
:10110000FFF7FDFC20211C48FFF7F9FC4FF40041DC
:101110001A48FFF7F6FC4FF400711748FFF7EFFC91
:1011200017480078012807D116480078012803D114
:101130000320154908701DE01148007838B911489E
:101140000078012803D104200F49087012E00C48F0
:10115000007801280BD10B48007840B9FFF7ECFD6F
:10116000282000F07DFA02200749087002E00020E4
:101170000549087010BD0000000C01400008014046
:1011800046000020470000204400002010B5FFF773
:101190007BFE4FF480712448FFF7B1FC20212248E8
:1011A000FFF7ADFC4FF400412048FFF7A8FC4FF4D7
:1011B00000711D48FFF7A5FC1D480078012812D1D9
:1011C0001C48007801280ED1FFF7E6FD4FF47A7035
:1011D00000F046FAFFF7C8FD282000F041FA012090
:1011E000154908701FE01248007801280DD11148F8
:1011F000007850B9FFF7D0FDFFF79EFD282000F0E2
:101200002FFA02200C4908700DE00948007838B91F
:1012100008480078012803D104200749087002E03B
:1012200000200549087010BD000C01400008014075
:1012300046000020470000204400002010B5FFF7C2
:1012400023FE4FF480711F48FFF759FC20211D48F1
:10125000FFF755FC4FF400411B48FFF752FC4FF4D9
:1012600000711848FFF74BFC18480078012807D197
:1012700017480078012803D10320164908701FE0A1
:101280001248007838B912480078012803D10420A8
:101290001049087014E00D48007801280DD10C4861
:1012A000007850B9FFF778FDFFF746FD282000F0E1
:1012B000D7F902200749087002E0002005490870AC
:1012C00010BD0000000C0140000801404600002055
:1012D000470000204400002010B5FFF7EDFD4FF45B
:1012E00080712048FFF70BFC20211E48FFF707FC08
:1012F0004FF400411C48FFF702FC4FF400711948FD
:10130000FFF7FDFB1948007801280AD1184800783A
:10131000012806D1282000F0A3F901201549087002
:101320001EE012480078012809D11148007830B930
:10133000282000F095F902200E49087010E00B48B3
:10134000007850B90A480078012806D1282000F01A
:1013500087F904200749087002E000200549087059
:1013600010BD0000000C01400008014046000020B4
:10137000470000204400002010B5FFF79DFD4FF40A
:1013800080712048FFF7BBFB20211E48FFF7B7FB09
:101390004FF400411C48FFF7B2FB4FF400711948AD
:1013A000FFF7ADFB1948007801280AD118480078EA
:1013B000012806D1282000F053F9032015490870B0
:1013C0001EE012480078012809D11148007830B990
:1013D000282000F045F902200E49087010E00B4863
:1013E000007850B90A480078012806D1282000F07A
:1013F00037F904200749087002E000200549087009
:1014000010BD0000000C0140000801404600002013
:1014100047000020440000207047000010B508215C
:101420000C48FFF763FB0C490978884210D0142060
:1014300000F016F908210748FFF758FB064909781C
:10144000884205D008210348FFF750FB0249087085
:1014500010BD0000000801404500002010B500F05C
:1014600001F810BD0CB500200190009033480068D1
:1014700040F480303149086000BF3048006800F413
:10148000003000900198401C0190009818B9019814
:10149000B0F5005FF1D12948006800F4003010B1C8
:1014A0000120009001E0002000900098012843D125
:1014B0002348006840F01000214908600846006891
:1014C00020F0030008600846006840F00200086051
:1014D0001A4840681949486008464068486008460C
:1014E000406840F4806048600846406820F47C1002
:1014F00048600846406840F4E810486008460068C4
:1015000040F08070086000BF0C48006800F0007078
:101510000028F9D00948406820F0030007494860D6
:101520000846406840F00200486000BF0348406839
:1015300000F00C000828F9D10CBD0000001002409A
:101540000020024010B54FF480710248FFF7D7FA2F
:1015500010BD00000008014010B54FF48071024832
:10156000FFF7CFFA10BD00000008014010B5214878
:101570000078E0B920480078052813D2DFE800F0B1
:101580000306090F0C00FFF7A7FE0FE0FFF7ACFC06
:101590000CE0FFF7FFFC09E0FFF7F8FD06E0FFF7BE
:1015A0009DFD03E000201449087000BF20E01148B1
:1015B000007801281CD110480078052813D2DFE8F4
:1015C00000F0030F06090C00FFF7D6FE0FE0FFF74F
:1015D0002DFD0CE0FFF78EFD09E0FFF72FFE06E082
:1015E000FFF7CCFC03E000200349087000BF00BFF8
:1015F00010BD00004500002044000020704700009E
:1016000010B51348006840F0010011490860084611
:101610004068104908400E494860084600680E4975
:1016200008400B4908600846006820F480200860E4
:101630000846406820F4FE0048604FF41F008860B0
:10164000FFF70CFF4FF000600449086010BD000078
:10165000001002400000FFF8FFFFF6FE08ED00E07A
:101660000021044A116000BF024909688142FBD38E
:10167000704700001400002010B50121880700F019
:1016800034F8E8B10121880700F020F80D4800681F
:10169000401C0C49086008460068B0F1805F01D327
:1016A0000020086008480068401C07490860084698
:1016B000006842F21071884202D900200249086095
:1016C00010BD00001400002018000020CA43028250
:1016D000704721B1028842F00102028004E00288D2
:1016E0004FF6FE731A400280704730B50246002064
:1016F00000230024158A05EA0103958905EA0104FF
:1017000013B10CB1012000E0002030BD1AB1838973
:101710000B43838102E083898B4383817047000000
:10172000002202881D4B98420ED01D4B98420BD0D0
:10173000B0F1804F08D01B4B984205D01A4B98420D
:1017400002D01A4B984204D14FF68F731A404B883F
:101750001A43174B984207D0164B984204D04FF6C5
:10176000FF431A40CB881A4302808B8883850B88FD
:1017700003850A4B98420BD0094B984208D00E4B78
:10178000984205D00D4B984202D00D4B984201D1A2
:101790000B7A03860123838270470000002C0140EE
:1017A000003401400004004000080040000C0040EC
:1017B000001000400014004000400140004401407F
:1017C000004801401FB501210846FFF713FA1C200D
:1017D0008DF80C0000208DF80D0001208DF80E0012
:1017E0008DF80F0003A8FFF793F96420ADF804000B
:1017F0004720ADF800000020ADF80600ADF802006B
:1018000069464FF08040FFF78BFF01221146900799
:10181000FFF77CFF01218807FFF75BFF1FBD00007A
:1018200010B540F225511D4800F04AF810B31B488E
:1018300000F002F9C4B21A48008800F40040C8B9A8
:101840001748008800F4804060B10A2C03D00020C3
:101850001349088020E01248008840F400401049F5
:10186000088019E00D2C06D10D48008840F4804016
:101870000B49088010E00A480088C0F30D000949B0
:101880000C5407480088401C054908800846008819
:10189000C72801DD0020088010BD0000003801408D
:1018A000200000203807002021B1828942F4005234
:1018B000828104E082894DF6FF731A40828170476D
:1018C00070B50246002400230025002040F66A1669
:1018D000B14200D100BFC1F3421501F01F03012640
:1018E00006FA03F3012D02D19689334006E0022D5A
:1018F00002D1168A334001E0968A33400C12012649
:1019000006FA04F41688344013B10CB1012000E04B
:10191000002070BDF0B503460024002600250020FD
:1019200040F66A17B94200D100BF1846C1F342140D
:1019300001F01F06012707FA06F5012C01D10C3032
:1019400004E0022C01D1103000E014301AB1076815
:101950002F43076002E00768AF430760F0BD000057
:101960002DE9F04786B005460E460024A24600BF8A
:10197000A1460027B08900B100BF2F462C8A4CF643
:10198000FF700440F08804432C82AC894EF6F310BB
:101990000440B08831890843718908430443AC810D
:1019A000AC8A4FF6FF400440B0890443AC8201A8E2
:1019B000FFF740F91F48874202D1DDF810A001E08F
:1019C000DDF80CA0A88900F4004040B10AEBCA0081
:1019D00000EB0A1031684900B0FBF1F807E00AEBB0
:1019E000CA0000EB0A1031688900B0FBF1F86420EE
:1019F000B8FBF0F004012009642101FB1089A889DB
:101A000000F4004040B1322000EBC900B0FBF1F01F
:101A100000F00700044308E0322000EB09106421C5
:101A2000B0FBF1F000F00F0004432C8106B0BDE8DC
:101A3000F08700000038014001468888C0F30800A4
:101A4000704700BFFEE700002DE9F04F89B0002489
:101A50000027A0460020079081468246069042F269
:101A600010752E460590049000BF2FE0AC4830F86A
:101A70001400A0F50060AA4931F81410A1F5006126
:101A800000FB0199A64830F8140040F29C7188428E
:101A900007DDA34830F8140040F66401884200DAFC
:101AA0007F1C42F2107085420FD19D4830F814001F
:101AB000A0F50060142808DA994830F81400A0F561
:101AC000006010F1140F00DD2546E41CB4F55E7FC4
:101AD000CCD34FF49470B9FBF0FB584600F055FAA4
:101AE000CDE9000100F0AEF9CDE9020100F020FAE5
:101AF00005908C480168059808448A4908608A481E
:101B00000068401C884908600846006841F2883136
:101B1000884212D90020844908608248006841F256
:101B20008831B0FBF1F0814908600846016880A067
:101B3000FEF74EFB00207B4908607C480068B0F54A
:101B4000487F07D37948006840F2DC51884201D8C9
:101B50000F2F0BD900207849087010217748FEF725
:101B6000CEFF20217548FEF7CCFF0AE00120724924
:101B7000087010217148FEF7C4FF20216F48FEF75E
:101B8000BEFF012430E0664830F81400A0F5006084
:101B9000634931F81410A1F5006100FB01AA604807
:101BA00030F8140040F29C71884208DD5C4830F83F
:101BB000140040F66401884201DA08F1010842F29B
:101BC000107086420FD1564830F81400A0F500601E
:101BD000142808DA524830F81400A0F5006010F11B
:101BE000140F00DD2646E41CB4F55E7FCBD34FF422
:101BF0009470BAFBF0FB584600F0C7F9CDE900013C
:101C000000F020F9CDE9020100F092F904904C486F
:101C10000168049808444A4908604A480068401C22
:101C2000484908600846006841F28831884212D964
:101C30000020444908604248006841F28831B0FB06
:101C4000F1F0414908600846016840A0FEF7C0FA7B
:101C500000203B4908603C480068B0F5487F08D345
:101C60003948006840F2DC51884202D8B8F10F0FC1
:101C70000CD900203749087040213048FEF73FFF5B
:101C80004FF400612D48FEF73CFF0BE00120314985
:101C9000087040212948FEF734FF4FF400612748BF
:101CA000FEF72DFF2C480068642803DD64202A49D4
:101CB000086019E028480068002803DA0020264957
:101CC000086011E0A81B1E2803DCA81B10F11E0FE2
:101CD00005DA21480068401C1F49086004E01E48DE
:101CE0000068401E1C4908601B48006846280CDD3F
:101CF00018480078012808D10F480078012804D13D
:101D000010211648FEF7FDFE07E0134800681E2864
:101D100003DA10211148FEF7F2FE09B0BDE8F08F9A
:101D200048000020240000202C0000203400002067
:101D3000413A25640D0A00004600002000080140D9
:101D4000280000203000002038000020423A25649E
:101D50000D0A00004700002040000020000C014058
:101D6000014600BF7047000000BF054A128802F01C
:101D70004002002AF9D0C2B2014B1B1D1A807047E5
:101D80000038014000BFFEF797FDFFF795F8FFF719
:101D9000D9FB10212448FEF7B2FE40212248FEF76D
:101DA000AEFE4FF400412048FEF7A9FE4FF48071CB
:101DB0001E48FEF7A4FE20211B48FEF7A0FE4FF4AC
:101DC00000611948FEF79BFE4FF400711748FEF7BB
:101DD00096FE20211548FEF792FE10211348FEF7CB
:101DE0008EFE08211148FEF78AFEFFF7EBFCFEF796
:101DF00037FB4FF4E13000F04BF80DA0FEF7E8F9A7
:101E000010E0FEF7BFFEFFF71FFEFFF7AFFB0C4829
:101E10000068B0F5FA7F05D240F2F5100849086075
:101E2000FFF7FCFAEDE7000000080140000C01405C
:101E300048656C6C6F776F726C6421210D0A00002D
:101E4000180000202DE9F04106460F4600F0FEF88C
:101E5000041E0D4618BF0120284320F00040C0F1A9
:101E60007F6000F1E040C00F0ED0301C18BF012091
:101E7000384320F00040C0F17F6000F1E040C00F27
:101E800004BF0120FEF728FA20462946BDE8F0816C
:101E900010B586B00446012144F20400FEF7BAFEF4
:101EA0004FF40070ADF8140003208DF816001820D0
:101EB0008DF8170005A91C48FEF744FD4FF480601B
:101EC000ADF8140004208DF8170005A91648FEF798
:101ED00039FD25208DF8000003208DF801008DF8D4
:101EE000020001208DF803006846FEF711FE019400
:101EF0000020ADF80800ADF80A00ADF80C00ADF810
:101F000010000C20ADF80E0001A90848FFF728FDCD
:101F1000012240F225510548FFF7FCFC012103484E
:101F2000FFF7C2FC06B010BD0008014000380140B8
:101F30004FEA1153A3F58063D3F11E03A8BFD3F179
:101F4000200C08DB4FF0004242EAC12252EA505214
:101F500032FA03F0704709420BD4102BC4BF0020A3
:101F6000704703F5787CBCF1FF3F05D04FF0FF30A0
:101F700070474FF00000704770B500F019F800BFCF
:101F80004992248000207047F0E7B0FA80F310FAFD
:101F900003F10AD0C3F11D0303F580634FEA4150FA
:101FA0004FEA035202EBD12170474FF00000704717
:101FB0000EF1020E2EF0030E5EF8046B364205D4CD
:101FC000012A43EB030515F5001F12D8012841EB48
:101FD000010C1CF5001F0CD80ED14FEAD17C15F571
:101FE000001F0CEB4C0C0CF1020C08BF4CEBD37C2B
:101FF00004E04FF0080C01E04FEAD37C0CEB4C05F9
:1020000026FA05F606F00706B6F1040C06D20EEB2A
:10201000860CBDE870404CF0010C6047DFE80CF026
:10202000090B02024FF000414FF00000A1F5002122
:1020300070BD19461046012851EB010418BFD4F5B4
:10204000001484BF002001F0004170BD2DE9F04173
:1020500001F5801CBCF5001FC0F2C3804FEA115C83
:1020600021EA0C510CF1FD0C41F480115FEA5C0C8B
:102070000CF5C07C01D3400049413DA4890241EAEE
:10208000905187028E0E0A0CA45D04FB04F602FB3D
:1020900006F6C6F14046A4FB0662F60D46EA422665
:1020A00006FB06F4A4FB01235242C3F1404338BFB0
:1020B0005B1EA6FB02420024E6FB0324D20B42EA8D
:1020C0004446A6FB0623A1FB02E2A3FB07E4A418F7
:1020D0004FF0000252F10002E3FB01426442C2F100
:1020E000404E38BFAEF1010EA6FB04234FF00002B4
:1020F000E6FB0E32A2FB03464FF00004B61954F182
:102100000004E2FB0264A1FB06E6A4FB07E816EB71
:1021100008064FF0000858F10008E4FB0168764219
:10212000C8F1405838BFA8F10108A2FB06E4A3FBA0
:1021300008E52D194FF0000454F10004E2FB0854A7
:10214000A1FB05E6A7FB04E818EB06084FF0000624
:1021500056F10006E1FB048618F1200556F1000651
:10216000A809A8F11B08B10908F03F08B8F10A0F47
:1021700040EA86601CD901EB0C51BDE8F08100BF3C
:10218000FCF5EEE8E2DDD8D3CFCBC7C3C0BDB9B60E
:10219000B4B1AEACA9A7A5A3A19F9D9B9A98969513
:1021A0009392908F8D8C8B8988878685848382819A
:1021B000A0FB006800FB01F208EB4208B8EB87289F
:1021C00007D5341858EB0104D5D5401C51F1000156
:1021D000D1E7341A78EB0104CDD4401E71F100012F
:1021E000C9E75FEA4C0C5FEA9C5C0DD105D34FF068
:1021F000000001F00041BDE8F081BDE8F04170B59C
:10220000FFF7D6FE6DDBFFBEBDE8F0414FF00000EA
:10221000004970470000F87F3822000800000020C5
:102220004800000028010008802200084800002023
:10223000180E000044010008000000000102030421
:102240000102030406070809020406080000000052
:10225000000000000000000000000000000000007E
:10226000000000000000000000000000000000006E
:10227000000000000000000000000000000000005E
:04000005080000ED02
:00000001FF
