:020000040800F2
:10000000680E0020910100088D0B0008070B000806
:10001000890B00080F070008771B0008000000008C
:100020000000000000000000000000006115000852
:10003000B508000800000000010C00083117000896
:10004000AB010008AB010008AB010008AB010008E0
:10005000AB010008AB010008AB010008AB010008D0
:10006000AB010008AB010008AB010008AB010008C0
:10007000AB010008AB010008AB010008AB010008B0
:10008000AB010008AB010008AB010008AB010008A0
:10009000AB010008AB010008AB010008AB01000890
:1000A000AB010008AB010008AB010008AB01000880
:1000B000AD170008AB010008AB010008AB01000858
:1000C000AB010008AB010008AB010008AB01000860
:1000D000AB01000855190008AB010008AB0100088E
:1000E000AB010008AB010008AB01000800F002F80A
:1000F00000F03FF80AA090E8000C82448344AAF183
:100100000107DA4501D100F034F8AFF2090EBAE880
:100110000F0013F0010F18BFFB1A43F0010318473B
:1001200084220000A4220000103A24BF78C878C1BD
:10013000FAD8520724BF30C830C144BF04680C60ED
:10014000704700000023002400250026103A28BF35
:1001500078C1FBD8520728BF30C148BF0B60704739
:10016000642900F07580002070471FB51FBD10B5D1
:1001700010BD00F047F91146FFF7F7FF01F0CCFE84
:1001800000F065F903B4FFF7F2FF03BC01F0B2FE23
:100190000948804709480047FEE7FEE7FEE7FEE71B
:1001A000FEE7FEE7FEE7FEE7FEE7FEE70448054957
:1001B000054A064B7047000035170008ED0000089F
:1001C00068080020680E0020680A0020680A0020E5
:1001D0000FB4044910B503AA029800F0DDF810BC72
:1001E0005DF814FB200000202DE9F0410E46044686
:1001F000002020622046E168884730B3252805D0DA
:10020000D4E901219047206A401CF2E7E1682046CA
:1002100000278847050018D0A5F14100192802D809
:1002200020354FF400673246294620462760FFF705
:1002300097FF40B1012804D0F61D26F007060836C6
:10024000D8E7361DD6E72846DAE7206ABDE8F08110
:100250002DE9F0410646002410687529314616A59F
:1002600010D0AFF30080002802DA404213A507E067
:1002700031688A0701D512A502E0490704D511A506
:10028000012401E0AFF3008000210A2206F12407D7
:1002900009E0B0FBF2FCB0FBF2F302FB1C003030D3
:1002A00078541846491C0028F3D123462A46304684
:1002B000BDE8F04100F016B8000000002D0000007D
:1002C0002B0000002000000070477047704710B5F9
:1002D00000F074F8006810BD10B5044600F06EF828
:1002E000046010BD2DE9F0470D469946924604463C
:1002F00000F124080168880604D5E06921F01001A6
:10030000216000E00120A84201DD471B00E000273A
:10031000A1697A1902EB0900081AA0612078C006C9
:1003200002D42046AFF30080002608E0D4E9012182
:100330001AF806009047206A401C761C20624E4541
:10034000F4DB2078C0060AD52046AFF3008006E033
:10035000D4E9012130209047206A401C2062381ED9
:10036000A7F10107F4DC07E0D4E9012118F8050042
:100370009047206A401C2062281EA5F10105F3DC8D
:100380002046AFF300802078000602D50220BDE8A9
:10039000F0870120FBE70000074B70B50D467B445A
:1003A00000F015F80446284600F024F810B14FF08C
:1003B000FF3070BD204670BD5B1B000000487047D9
:1003C0000808002001694A1C02610878704700B5DE
:1003D0008FB0CDE901310021059105497944CDE97E
:1003E000031011466846FFF7FFFE0FB000BD000086
:1003F000E5FFFFFF007B00F080007047004870477A
:10040000080800207546FFF7F9FFAE46050069466B
:10041000534620F00700854618B020B5FFF7C6FE0A
:10042000BDE820404FF000064FF000074FF00008F5
:100430004FF0000B21F00701AC46ACE8C009ACE876
:10044000C009ACE8C009ACE8C0098D46704710B5DA
:100450000446AFF300802046BDE81040FFF792BE8F
:1004600000B591B04FF4004000F0E4FB01210846D4
:1004700000F0ECFB01214FF4017000F007FC0720B5
:10048000ADF8000000208DF8030069463A4800F0FE
:1004900059FA3A4800F04AF939480190394802902F
:1004A000002003904FF45E7004900020059080209F
:1004B00006904000079080000890202009900002DC
:1004C0000A9000200B9001A92C4800F0D5F90121D9
:1004D0002A4800F01EF900200C9001208DF834000D
:1004E0008DF835004FF460200E9000200F9003200F
:1004F0008DF840000CA922484C3800F06FF8072313
:10050000012200211E484C3800F090F807230222F7
:1005100001211B484C3800F089F8072303220221EF
:1005200017484C3800F082F8012115484C3800F08B
:1005300036F8012112484C3800F026F810484C38A3
:1005400000F0D0F800BF0E484C3800F03DF800280D
:10055000F9D10B484C3800F0D5F800BF08484C38AA
:1005600000F028F80028F9D1012105484C3800F0A6
:10057000BEF811B000BD00000008014008000240B4
:100580004C2401405000002021B1826842F0010259
:10059000826003E0826822F001028260704721B12C
:1005A000826842F48072826003E0826822F4807282
:1005B00082607047014600208A6802F004020AB196
:1005C000012000E000207047014600208A6802F008
:1005D00008020AB1012000E00020704730B5024651
:1005E0000020002350680F4C20400D790C6844EA2D
:1005F00005242043506090680B4C2040D1E9025400
:100600002C434D7944EA450420439060D06A20F49D
:1006100070000C7C641EE4B2234340EA0350D062B5
:1006200030BD0000FFFEF0FFFDF7F1FFF0B504461E
:100630000D4600200021092D11DDE068A5F10A0614
:1006400006EB4607072606FA07F18843A5F10A06D6
:1006500006EB460603FA06F10843E0600CE0206969
:1006600005EB4507072606FA07F1884305EB450623
:1006700003FA06F108432061072A0FDA606B561E61
:1006800006EB86071F2606FA07F18843561E06EB7F
:10069000860605FA06F10843606322E00D2A0FDAA8
:1006A000206BD61F06EB86071F2606FA07F1884344
:1006B000D61F06EB860605FA06F10843206310E014
:1006C000E06AA2F10D0606EB86071F2606FA07F17F
:1006D0008843A2F10D0606EB860605FA06F10843EB
:1006E000E062F0BD816841F008018160704721B18E
:1006F000826842F4A002826003E0826822F4A002D1
:1007000082607047816841F004018160704700BFDA
:10071000FEE721B1026842F00102026004E00268D3
:100720004FF6FE731A4002607047000001684FF6F2
:10073000FE72114001600021016041608160C16072
:100740004B49884208D14A490839496841F00F01AC
:10075000474A083A51608AE045491431884208D135
:1007600043490839496841F0F001414A083A51606B
:100770007DE03F492831884208D13D490839496820
:1007800041F470613A4A083A516070E038493C31AE
:10079000884208D136490839496841F47041344AE1
:1007A000083A516063E032495031884208D13049FB
:1007B0000839496841F470212D4A083A516056E0E1
:1007C0002B496431884208D129490839496841F4E4
:1007D0007001274A083A516049E02549783188423A
:1007E00008D123490839496841F07061204A083A24
:1007F00051603CE01F49884206D1011F096841F061
:100800000F01021F116032E01A491431884208D1E9
:100810001849091F096841F0F001164A121F1160BA
:1008200025E014492831884208D11249091F096876
:1008300041F470610F4A121F116018E00D493C31FC
:10084000884208D10B49091F096841F47041094ADF
:10085000121F11600BE007495031884207D105494A
:10086000091F096841F47021024A121F1160704784
:10087000080002400804024010B50022026847F652
:10088000F0739A430C6A8B6823430C6923434C69C9
:1008900023438C692343CC6923434C6A23438C6AEA
:1008A00023431A430260CB6843600B6883604B6844
:1008B000C36010BD7047000008B501210D2000F095
:1008C000E5F901211C4800F0C9F849F67010ADF8AF
:1008D000000003208DF8020010208DF80300694607
:1008E000164800F02FF84FF23830ADF80000032022
:1008F0008DF8020010208DF803006946104800F0C2
:1009000021F80820ADF8000003208DF80200042033
:100910008DF803006946094800F014F80320ADF88B
:1009200000008DF8020004208DF803006946044899
:1009300000F008F808BD0000000230000008014087
:10094000000C01402DE9F041024600250026002060
:1009500000230024002791F803C00CF00F0591F844
:1009600003C00CF0100CBCF1000F03D091F802C0D2
:100970004CEA050591F800C0BCF1000F31D01468B5
:1009800000202BE04FF0010C0CFA00F3B1F800C08E
:100990000CEA03069E4220D183004FF00F0C0CFAA4
:1009A00003F7BC4305FA03FC4CEA040491F803C0C6
:1009B000BCF1280F06D14FF0010C0CFA00FCC2F874
:1009C00014C00AE091F803C0BCF1480F05D14FF004
:1009D000010C0CFA00FCC2F810C0401C0828D1D34E
:1009E0001460B1F800C0BCF1FF0F34DD5468002082
:1009F0002EE000F1080C4FF0010808FA0CF3B1F8F2
:100A000000C00CEA03069E4221D183004FF00F0C78
:100A10000CFA03F7BC4305FA03FC4CEA040491F812
:100A200003C0BCF1280F05D100F1080C08FA0CF83E
:100A3000C2F8148091F803C0BCF1480F07D100F14F
:100A4000080C4FF0010808FA0CF8C2F81080401C9E
:100A50000828CED35460BDE8F0810000F0B50A4606
:100A6000002300240021002500F00046B6F1004FCD
:100A700002D11D4EF16901E01B4E7168C0F30345C0
:100A800083B200F44016B6F5401F08D121F0706122
:100A9000154E766826F07066134F7E6012E000F403
:100AA0008016B6F5801F06D1032606FA05F4A14389
:100AB00041F0706106E0460D360103FA06F6B143D7
:100AC00041F0706122B1460D360103FA06F631435A
:100AD00000F00046B6F1004F02D1034EF16101E093
:100AE000014E7160F0BD0000000001400246002090
:100AF00093680B400BB1012000E00020704741617A
:100B000070470161704700BFFEE700004CF6CC4023
:100B100001490860704700000030004010B57D209A
:100B200000F038F908B100F0C1F845F2555000F076
:100B300025F8032000F016F805480068C0F34F10B0
:100B400000F016F800F006F8FFF7E0FF10BD000017
:100B5000140000204AF6AA200149086070470000EE
:100B600000300040014948607047000000300040FC
:100B7000014988607047000000300040014908606A
:100B8000704700000030004000BFFEE770470000E3
:100B900070B5002100230F22C47804B3154C2468DB
:100BA00004F4E064C4F5E064210AC1F10403CA401E
:100BB000447804FA03F184781440214309010E4C6F
:100BC0000678A155047804F01F050124AC4005788F
:100BD0006D11AD0005F1E025C5F8004109E004788C
:100BE00004F01F050124AC40044D0678761145F849
:100BF000264070BD0CED00E000E400E080E100E084
:100C00007047000010B501210948FFF76FFF48B198
:100C100002210748FFF76AFF20B108210448FFF7C7
:100C20006EFF03E008210248FFF76BFF10BD0000D4
:100C3000000C014001460020034A506820F4404067
:100C400008435060704700000010024029B1064A76
:100C500052690243044B5A6104E0034A52698243D9
:100C6000014B5A61704700000010024029B1064A4A
:100C7000D2690243044BDA6104E0034AD269824339
:100C8000014BDA61704700000010024029B1064AAA
:100C900092690243044B9A6104E0034A92698243D9
:100CA000014B9A6170470000001002400348406AFF
:100CB00040F0807001494862704700000010024017
:100CC00030B500210022002400232D4D6D6805F071
:100CD0000C0121B1042905D0082923D105E0294DB3
:100CE000056022E0274D05601FE0254D6D6805F485
:100CF0007012234D6D6805F48034022505EB924295
:100D00001CB9214D554305600BE01D4D6D6805F480
:100D100000351DB11C4D5543056002E0194D55438A
:100D2000056002E0174D056000BF00BF144D6D68FF
:100D300005F0F0010909154D6B5C0568DD40456063
:100D40000F4D6D6805F4E061090A104D6B5C456854
:100D5000DD4085600A4D6D6805F46051C90A0B4D90
:100D60006B5C4568DD40C560054D6D6805F440412C
:100D7000890B074D6B5CC568B5FBF3F5056130BDAC
:100D80000010024000127A0000093D00000000201F
:100D90001000002010B501460022002300204A1157
:100DA000012A02D1094C236806E0022A02D1074C2D
:100DB000236A01E0054C636A01F01F02012494409C
:100DC0001C400CB1012000E0002010BD00100240CA
:100DD00010B54FF480510948FFF791FE4FF4804160
:100DE0000648FFF78CFE4FF400410448FFF787FEEA
:100DF0004FF400510148FFF784FE10BD000C014084
:100E000010B54FF400410948FFF779FE4FF48041D7
:100E10000648FFF774FE4FF400510448FFF76FFED9
:100E20004FF480510148FFF76CFE10BD000C0140EB
:100E300010B54FF480410948FFF761FE4FF480512F
:100E40000648FFF75EFE4FF400510448FFF759FED5
:100E50004FF400410148FFF754FE10BD000C014063
:100E600010B54FF400410948FFF749FE4FF48041A7
:100E70000648FFF746FE4FF400510448FFF741FED5
:100E80004FF480510148FFF73CFE10BD000C0140BB
:100E900010B54FF400410948FFF731FE4FF40051FF
:100EA0000648FFF72EFE4FF480510448FFF729FE55
:100EB0004FF480410148FFF724FE10BD000C0140B3
:100EC00010B54FF400410948FFF719FE4FF40051E7
:100ED0000648FFF714FE4FF480510448FFF711FE57
:100EE0004FF480410148FFF70CFE10BD000C01409B
:100EF00010B54FF480410948FFF701FE4FF48051CF
:100F00000648FFF7FEFD4FF400510448FFF7F9FDD6
:100F10004FF400410148FFF7F4FD10BD000C014003
:100F200010B54FF480410948FFF7E9FD4FF48051B7
:100F30000648FFF7E4FD4FF400510448FFF7E1FDD8
:100F40004FF400410148FFF7DCFD10BD000C0140EB
:100F500010B54FF480510948FFF7D1FD4FF400510F
:100F60000648FFF7CCFD4FF480410448FFF7C7FD6A
:100F70004FF400410148FFF7C2FD10BD000C0140D5
:100F800010B5FFF785FF4FF480712348FFF7B9FDD7
:100F900020212148FFF7B3FD4FF400411F48FFF720
:100FA000AEFD4FF400711C48FFF7A9FD1C48007806
:100FB00030B91C48007818B901201B49087029E095
:100FC0001748007830B91748007818B10220164940
:100FD00008701FE012480078C8B112480078B0B914
:100FE000FFF7F6FE0E480078012803D1142000F028
:100FF000D1FB02E0322000F0CDFBFFF791FF4FF470
:101000007A7000F0C7FB04200749087002E0002056
:101010000549087010BD0000000C014000080140A7
:101020004E0000204F0000204C00002010B5FFF7BC
:10103000CFFE322000F0AEFBFFF75AFF4FF47A707C
:1010400000F0A8FB03200149087010BD4C000020EF
:1010500010B5FFF735FF4FF480712448FFF751FDBD
:1010600020212248FFF74BFD4FF400412048FFF7B5
:1010700046FD4FF400711D48FFF741FD1D48007803
:1010800030B91D48007818B901201C4908702BE0C0
:101090001848007830B91848007818B1022017496C
:1010A000087021E013480078D8B113480078C0B91F
:1010B000FFF7D6FEFFF78CFE0E480078012803D11B
:1010C000142000F067FB02E0322000F063FBFFF722
:1010D00027FF4FF47A7000F05DFB04200749087089
:1010E00002E000200549087010BD0000000C01401E
:1010F000000801404E0000204F0000204C0000205E
:1011000010B5FFF7DDFE4FF480712C48FFF7F7FCB8
:1011100020212A48FFF7F5FC4FF400412848FFF74B
:10112000EEFC4FF400712548FFF7E9FC25480078F4
:10113000B8B925480078A0B9FFF792FE4FF47A704D
:1011400000F028FBFFF744FE322000F023FBFFF7FE
:10115000CFFE4FF47A7000F01DFB03201B4908708E
:101160002BE018480078D8B117480078C0B9FFF7CD
:1011700077FEFFF72DFE13480078012803D11420D5
:1011800000F008FB02E0322000F004FBFFF7C8FE8D
:101190004FF47A7000F0FEFA04200C4908700CE05D
:1011A0000848007830B90848007818B1022007498B
:1011B000087002E000200549087010BD000C0140D5
:1011C000000801404E0000204F0000204C0000208D
:1011D00010B5FFF715FE322000F0DCFAFFF758FEDD
:1011E0004FF47A7000F0D6FA01200149087010BD62
:1011F0004C00002010B5FFF77BFE4FF480712348B0
:10120000FFF77DFC20212148FFF779FC4FF40041D6
:101210001F48FFF776FC4FF400711C48FFF76FFC86
:101220001C48007830B91C48007818B903201B49C5
:10123000087029E01748007830B11748007818B9CD
:101240000420164908701FE012480078C8B91248F7
:101250000078B0B1FFF7D4FD0F480078012803D122
:10126000142000F097FA02E0322000F093FAFFF722
:1012700027FE4FF47A7000F08DFA022007490870BB
:1012800002E000200549087010BD0000000C01407C
:10129000000801404E0000204F0000204C000020BC
:1012A00010B5FFF73DFE4FF480712C48FFF727FC87
:1012B00020212A48FFF723FC4FF400412848FFF77C
:1012C0001EFC4FF400712548FFF71BFC25480078F1
:1012D000B8B925480078A0B9FFF7AAFD4FF47A7095
:1012E00000F058FAFFF78CFD322000F053FAFFF7B8
:1012F000CFFD4FF47A7000F04DFA01201B490870C1
:101300002BE018480078D8B917480078C0B1FFF72B
:101310008FFDFFF775FD14480078012803D11420D4
:1013200000F038FA02E0322000F034FAFFF7C8FD8E
:101330004FF47A7000F02EFA02200C4908700CE08D
:101340000848007830B10848007818B904200749E7
:10135000087002E000200549087010BD000C014033
:10136000000801404E0000204F0000204C000020EB
:1013700010B5FFF7D5FD4FF480712448FFF7BFFB90
:1013800020212248FFF7BBFB4FF400412048FFF724
:10139000B8FB4FF400711D48FFF7B1FB1D48007802
:1013A00030B91D48007818B903201C4908702BE09B
:1013B0001848007830B11848007818B90420174947
:1013C000087021E013480078D8B913480078C0B1FC
:1013D000FFF72EFDFFF714FD0F480078012803D119
:1013E000142000F0D7F902E0322000F0D3F9FFF723
:1013F00067FD4FF47A7000F0CDF9022007490870BC
:1014000002E000200549087010BD0000000C0140FA
:10141000000801404E0000204F0000204C0000203A
:1014200010B5FFF795FD4FF480711F48FFF767FB7C
:1014300020211D48FFF763FB4FF400411B48FFF7D5
:101440005EFB4FF400711848FFF759FB184800780D
:1014500050B91848007838B91748006800F09AF970
:101460000120164908701EE01148007850B9114853
:10147000007838B11048006800F08CF902200F495C
:10148000087010E00A48007850B10A48007838B96E
:101490000948006800F07EF904200849087002E05D
:1014A00000200649087010BD000C014000080140F2
:1014B0004E0000204F000020280000204C0000209B
:1014C00010B5FFF745FD4FF480711F48FFF717FB7C
:1014D00020211D48FFF713FB4FF400411B48FFF785
:1014E0000EFB4FF400711848FFF709FB184800780D
:1014F00050B91848007838B91748006800F04AF920
:101500000320164908701EE01148007850B91148B0
:10151000007838B11048006800F03CF902200F490B
:10152000087010E00A48007850B10A48007838B9CD
:101530000948006800F02EF904200849087002E00C
:1015400000200649087010BD000C01400008014051
:101550004E0000204F000020280000204C000020FA
:101560007047000010B508210C48FFF7BFFA0C497E
:101570000978884211D04FF4FA6000F00BF9082185
:101580000648FFF7B3FA06490978884205D00821D2
:101590000248FFF7ABFA0249087010BD000801408D
:1015A0004D00002010B500F001F810BD0CB5002072
:1015B000019000903348006840F480303149086061
:1015C00000BF3048006800F4003000900198401CD3
:1015D0000190009818B90198B0F5005FF1D1294841
:1015E000006800F4003010B10120009001E00020FC
:1015F00000900098012843D12348006840F0100073
:10160000214908600846006820F003000860084689
:10161000006840F0020008601A48406819494860B4
:101620000846406848600846406840F4806048606A
:101630000846406820F47C1048600846406840F442
:10164000E81048600846006840F08070086000BFFD
:101650000C48006800F000700028F9D00948406884
:1016600020F00300074948600846406840F0020047
:10167000486000BF0348406800F00C000828F9D11A
:101680000CBD0000001002400020024010B54FF4D5
:1016900080710248FFF733FA10BD000000080140D6
:1016A00010B52148007801281CD120480078052871
:1016B00013D2DFE800F00306090F0C00FFF7B0FEBD
:1016C0000FE0FFF75DFC0CE0FFF7C2FC09E0FFF75D
:1016D000E7FD06E0FFF77CFD03E0002013490870FA
:1016E00000BF1FE010480078E0B9104800780528D6
:1016F00013D2DFE800F0030F06090C00FFF7E0FE4D
:101700000FE0FFF7FDFC0CE0FFF774FD09E0FFF7C9
:101710002FFE06E0FFF78AFC03E000200349087073
:1017200000BF00BF10BD00004D0000204C00002095
:101730007047000010B51348006840F001001149DF
:10174000086008464068104908400E49486008464D
:1017500000680E4908400B4908600846006820F4FC
:10176000802008600846406820F4FE0048604FF47E
:101770001F008860FFF716FF4FF000600449086003
:1017800010BD0000001002400000FFF8FFFFF6FE51
:1017900008ED00E00021044A116000BF0249096819
:1017A0008142FBD3704700001800002010B50121D2
:1017B000880700F034F8E8B10121880700F020F82C
:1017C0000D480068401C0C49086008460068B0F1EC
:1017D000805F01D30020086008480068401C07496A
:1017E00008600846006842F21071884202D9002061
:1017F0000249086010BD0000180000201C000020F5
:10180000CA430282704721B1028842F0010202807D
:1018100004E002884FF6FE731A400280704730B52C
:101820000246002000230024158A05EA0103958959
:1018300005EA010413B10CB1012000E0002030BD25
:101840001AB183890B43838102E083898B438381AF
:1018500070470000002202881D4B98420ED01D4B9D
:1018600098420BD0B0F1804F08D01B4B984205D066
:101870001A4B984202D01A4B984204D14FF68F73FC
:101880001A404B881A43174B984207D0164B984280
:1018900004D04FF6FF431A40CB881A4302808B884E
:1018A00083850B8803850A4B98420BD0094B9842DD
:1018B00008D00E4B984205D00D4B984202D00D4BEC
:1018C000984201D10B7A038601238382704700007E
:1018D000002C01400034014000040040000800409A
:1018E000000C004000100040001400400040014087
:1018F00000440140004801401FB501210846FFF7A0
:10190000B5F91C208DF80C0000208DF80D00012089
:101910008DF80E008DF80F0003A8FFF739F9642049
:10192000ADF804004720ADF800000020ADF8060037
:10193000ADF8020069464FF08040FFF78BFF0122AF
:1019400011469007FFF77CFF01218807FFF75BFF37
:101950001FBD000010B540F225511D4800F04AF8A7
:1019600010B31B4800F002F9C4B21A48008800F412
:101970000040C8B91748008800F4804060B10A2CC4
:1019800003D000201349088020E01248008840F46A
:1019900000401049088019E00D2C06D10D48008840
:1019A00040F480400B49088010E00A480088C0F3EA
:1019B0000D0009490C5407480088401C054908805F
:1019C00008460088C72801DD0020088010BD0000FF
:1019D00000380140240000204007002021B1828906
:1019E00042F40052828104E082894DF6FF731A406E
:1019F0008281704770B50246002400230025002034
:101A000040F66A16B14200D100BFC1F3421501F0A1
:101A10001F03012606FA03F3012D02D196893340F4
:101A200006E0022D02D1168A334001E0968A334047
:101A30000C12012606FA04F41688344013B10CB1D6
:101A4000012000E0002070BDF0B503460024002610
:101A50000025002040F66A17B94200D100BF1846A1
:101A6000C1F3421401F01F06012707FA06F5012C05
:101A700001D10C3004E0022C01D1103000E0143010
:101A80001AB107682F43076002E00768AF43076099
:101A9000F0BD00002DE9F04786B005460E46002453
:101AA000A24600BFA1460027B08900B100BF2F4663
:101AB0002C8A4CF6FF700440F08804432C82AC89D9
:101AC0004EF6F3100440B088318908437189084309
:101AD0000443AC81AC8A4FF6FF400440B089044314
:101AE000AC8201A8FFF7ECF81F48874202D1DDF86D
:101AF00010A001E0DDF80CA0A88900F4004040B17E
:101B00000AEBCA0000EB0A1031684900B0FBF1F89B
:101B100007E00AEBCA0000EB0A1031688900B0FB4D
:101B2000F1F86420B8FBF0F004012009642101FB06
:101B30001089A88900F4004040B1322000EBC900B0
:101B4000B0FBF1F000F00700044308E0322000EBA6
:101B500009106421B0FBF1F000F00F0004432C8168
:101B600006B0BDE8F08700000038014001468888D3
:101B7000C0F30800704700BFFEE700002DE9F04FFA
:101B800089B000240027A0460020079081468246A5
:101B9000069042F210752E460590049000BF2FE08B
:101BA000C44830F81400A0F50060C24931F81410A0
:101BB000A1F5006100FB0199BE4830F8140040F225
:101BC0009C71884207DDBB4830F8140040F6640180
:101BD000884200DA7F1C42F2107085420FD1B5486E
:101BE00030F81400A0F50060142808DAB14830F885
:101BF0001400A0F5006010F1140F00DD2546E41C70
:101C0000B4F55E7FCCD34FF49470B9FBF0FB58462B
:101C100000F081FACDE9000100F0DAF9CDE9020126
:101C200000F04CFA0590A448016805980844A249C0
:101C30000860A2480068401CA04908600846006887
:101C400041F28831884212D900209C4908609A48A4
:101C5000006841F28831B0FBF1F09949086008460C
:101C6000016898A0FEF7B4FA002093490860322F6B
:101C70000BD901209549087010219548FEF73FFFC8
:101C800020219348FEF73BFF2BE08D480068B0F51C
:101C9000ED7F04D38A480068B0F5B96F0BD30220FA
:101CA0008A49087010218A48FEF729FF20218848B8
:101CB000FEF727FF15E082480068B0F5FB7F10D3E0
:101CC0007F48006840F2AB5188420AD800207F4923
:101CD000087010217E48FEF714FF20217C48FEF793
:101CE0000EFF01242FE0734830F81410A1F50061B5
:101CF00030F81400A0F5006001FB00AA6D4830F830
:101D0000140040F29C71884208DD6A4830F81400E3
:101D100040F66401884201DA08F1010842F21070CD
:101D200086420FD1634830F81400A0F500601428F3
:101D300008DA604830F81400A0F5006010F1140FC4
:101D400000DD2646E41CB4F55E7FCCD34FF49470DE
:101D5000BAFBF0FB584600F0DEF9CDE9000100F0D7
:101D600037F9CDE9020100F0A9F90490594801685A
:101D7000049808445749086057480068401C564971
:101D800008600846006841F28831884212D9002074
:101D9000514908604F48006841F28831B0FBF1F0CA
:101DA0004E490860084601684DA0FEF711FA002070
:101DB00048490860B8F1320F0CD901204A4908702F
:101DC00040214348FEF79BFE4FF400614048FEF778
:101DD00096FE2DE041480068B0F5ED7F04D33F4802
:101DE0000068B0F5B96F0CD302203F49087040215C
:101DF0003748FEF784FE4FF400613548FEF781FE58
:101E000016E036480068B0F5FB7F11D33348006810
:101E100040F2AB5188420BD8002033490870402172
:101E20002B48FEF76EFE4FF400612948FEF767FE6F
:101E30002E480068642803DD64202C49086019E0FE
:101E40002A480068002803DA00202849086011E0C9
:101E5000A81B1E2803DCA81B10F11E0F05DA23485F
:101E60000068401C2149086004E020480068401ECA
:101E70001E4908601D48006846280ADD1A48007897
:101E800038B91248007820B910211948FEF739FEF8
:101E90000DE0164800681E2805DB1348007810B9CD
:101EA0000A48007818B110211148FEF728FE09B041
:101EB000BDE8F08F500000202C00002034000020EE
:101EC0003C000020413A25640D0A00004E0000202D
:101ED00000080140300000203800002040000020B1
:101EE000423A25640D0A00004F00002048000020FF
:101EF000000C0140014600BF7047000000BF054ACA
:101F0000128802F04002002AF9D0C2B2014B1B1D18
:101F10001A8070470038014000BFFEF7FFFDFEF752
:101F2000CBFCFFF715F8FFF7B1FB10212548FEF7B2
:101F3000E6FD40212348FEF7E2FD4FF40041214831
:101F4000FEF7DDFD4FF480711F48FEF7D8FD20211C
:101F50001C48FEF7D4FD4FF400611A48FEF7CFFD90
:101F60004FF400711848FEF7CAFD20211648FEF70D
:101F7000C6FD10211448FEF7C2FD08211248FEF7E5
:101F8000BEFDFFF7B9FCFEF76BFA4FF4E13000F04D
:101F900045F8FEF7DFFD14E0FEF7DCFDFEF732FE4C
:101FA000FFF7ECFDFFF77CFB08480068B0F5FA7F0F
:101FB00007D240F2F51005490860FEF7CBFDFFF7A8
:101FC000D1FAE9E700080140000C01401C000020A4
:101FD0002DE9F04106460F4600F0FEF8041E0D46BE
:101FE00018BF0120284320F00040C0F17F6000F1BD
:101FF000E040C00F0ED0301C18BF0120384320F045
:102000000040C0F17F6000F1E040C00F04BF01203C
:10201000FEF762F920462946BDE8F08110B586B08A
:102020000446012144F20400FEF730FE4FF4007034
:10203000ADF8140003208DF8160018208DF8170055
:1020400005A91C48FEF77EFC4FF48060ADF8140033
:1020500004208DF8170005A91648FEF773FC25200B
:102060008DF8000003208DF801008DF8020001209A
:102070008DF803006846FEF78BFD01940020ADF853
:102080000800ADF80A00ADF80C00ADF810000C2007
:10209000ADF80E0001A90848FFF7FCFC012240F250
:1020A00025510548FFF7D0FC01210348FFF796FCB6
:1020B00006B010BD00080140003801404FEA11533E
:1020C000A3F58063D3F11E03A8BFD3F1200C08DB76
:1020D0004FF0004242EAC12252EA505232FA03F073
:1020E000704709420BD4102BC4BF0020704703F582
:1020F000787CBCF1FF3F05D04FF0FF3070474FF0C8
:102100000000704770B500F019F800BF49922480B4
:1021100000207047F0E7B0FA80F310FA03F10AD01C
:10212000C3F11D0303F580634FEA41504FEA0352A8
:1021300002EBD12170474FF0000070470EF1020E04
:102140002EF0030E5EF8046B364205D4012A43EBF1
:10215000030515F5001F12D8012841EB010C1CF5F1
:10216000001F0CD80ED14FEAD17C15F5001F0CEBE7
:102170004C0C0CF1020C08BF4CEBD37C04E04FF08C
:10218000080C01E04FEAD37C0CEB4C0526FA05F66F
:1021900006F00706B6F1040C06D20EEB860CBDE87D
:1021A00070404CF0010C6047DFE80CF0090B0202B4
:1021B0004FF000414FF00000A1F5002170BD19461D
:1021C0001046012851EB010418BFD4F5001484BF58
:1021D000002001F0004170BD2DE9F04101F5801CA7
:1021E000BCF5001FC0F2C3804FEA115C21EA0C511C
:1021F0000CF1FD0C41F480115FEA5C0C0CF5C07C25
:1022000001D3400049413DA4890241EA905187022F
:102210008E0E0A0CA45D04FB04F602FB06F6C6F162
:102220004046A4FB0662F60D46EA422606FB06F48B
:10223000A4FB01235242C3F1404338BF5B1EA6FBFF
:1022400002420024E6FB0324D20B42EA4446A6FBEA
:102250000623A1FB02E2A3FB07E4A4184FF000024F
:1022600052F10002E3FB01426442C2F1404E38BF2A
:10227000AEF1010EA6FB04234FF00002E6FB0E3286
:10228000A2FB03464FF00004B61954F10004E2FB30
:102290000264A1FB06E6A4FB07E816EB08064FF074
:1022A000000858F10008E4FB01687642C8F1405884
:1022B00038BFA8F10108A2FB06E4A3FB08E52D192D
:1022C0004FF0000454F10004E2FB0854A1FB05E6C2
:1022D000A7FB04E818EB06084FF0000656F10006CD
:1022E000E1FB048618F1200556F10006A809A8F1C3
:1022F0001B08B10908F03F08B8F10A0F40EA8660F0
:102300001CD901EB0C51BDE8F08100BFFCF5EEE8F3
:10231000E2DDD8D3CFCBC7C3C0BDB9B6B4B1AEAC84
:10232000A9A7A5A3A19F9D9B9A9896959392908FFC
:102330008D8C8B898887868584838281A0FB006849
:1023400000FB01F208EB4208B8EB872807D53418E8
:1023500058EB0104D5D5401C51F10001D1E7341AE6
:1023600078EB0104CDD4401E71F10001C9E75FEAAA
:102370004C0C5FEA9C5C0DD105D34FF0000001F0DE
:102380000041BDE8F081BDE8F04170B5FFF7D6FE31
:102390006DDBFFBEBDE8F0414FF000000049704723
:1023A0000000F87FC4230008000000205000000057
:1023B000280100081424000850000020180E000016
:1023C00044010008000000000102030401020304AC
:1023D0000607080902040608409C000000000000EF
:1023E00000000000000000000000000014000000D9
:1023F00000000000000000000000000000000000DD
:1024000000000000000000000000000000000000CC
:0424100000010101C5
:04000005080000ED02
:00000001FF
