:020000040800F2
:10000000680E002089010008F5080008DB080008D8
:10001000F1080008E3040008CF1000080000000009
:10002000000000000000000000000000490B000874
:10003000890600080000000069090008890C000812
:10004000A3010008A3010008A3010008A301000800
:10005000A3010008A3010008A3010008A3010008F0
:10006000A3010008A3010008A3010008A3010008E0
:10007000A3010008A3010008A3010008A3010008D0
:10008000A3010008A3010008A3010008A3010008C0
:10009000A3010008A3010008A3010008A3010008B0
:1000A000A3010008A3010008A3010008A3010008A0
:1000B000050D0008A3010008A3010008A301000822
:1000C000A3010008A3010008A3010008A301000880
:1000D000A3010008AD0E0008A3010008A301000859
:1000E000A3010008A3010008A301000800F002F822
:1000F00000F03AF80AA090E8000C82448344AAF188
:100100000107DA4501D100F02FF8AFF2090EBAE885
:100110000F0013F0010F18BFFB1A43F0010318473B
:1001200084120000A4120000103A24BF78C878C1DD
:10013000FAD8520724BF30C830C144BF04680C60ED
:10014000704700000023002400250026103A28BF35
:1001500078C1FBD8520728BF30C148BF0B60704739
:100160001FB51FBD10B510BD00F036F81146FFF7E2
:10017000F7FF00F0B1FF00F054F803B4FFF7F2FF0F
:1001800003BC00F0A6FF000009488047094800476B
:10019000FEE7FEE7FEE7FEE7FEE7FEE7FEE7FEE737
:1001A000FEE7FEE704480549054A064B7047000094
:1001B0008D0C0008ED00000868080020680E002083
:1001C000680A0020680A00207047704770470000E6
:1001D00000487047040800207546FFF7F9FFAE4657
:1001E00005006946534620F00700854618B020B543
:1001F000FFF7D8FFBDE820404FF000064FF00007A2
:100200004FF000084FF0000B21F00701AC46ACE8BE
:10021000C009ACE8C009ACE8C009ACE8C0098D462B
:10022000704710B50446AFF300802046BDE810408B
:10023000FFF7A3BF00B591B04FF4004000F096FB6C
:100240000121084600F09EFB01214FF4017000F0EF
:10025000B9FB0720ADF8000000208DF803006946C7
:100260003A4800F059FA3A4800F04AF93948019002
:1002700039480290002003904FF45E7004900020F3
:100280000590802006904000079080000890202074
:10029000099000020A9000200B9001A92C4800F060
:1002A000D5F901212A4800F01EF900200C90012008
:1002B0008DF834008DF835004FF460200E9000204A
:1002C0000F9003208DF840000CA922484C3800F014
:1002D0006FF80723012200211E484C3800F090F8E7
:1002E0000723022201211B484C3800F089F807231C
:1002F0000322022117484C3800F082F801211548EA
:100300004C3800F036F8012112484C3800F026F83D
:1003100010484C3800F0D0F800BF0E484C3800F0C0
:100320003DF80028F9D10B484C3800F0D5F800BF53
:1003300008484C3800F028F80028F9D10121054878
:100340004C3800F0BEF811B000BD000000080140BC
:10035000080002404C2401404C00002021B182687A
:1003600042F00102826003E0826822F001028260B2
:10037000704721B1826842F48072826003E0826833
:1003800022F4807282607047014600208A6802F081
:1003900004020AB1012000E000207047014600205D
:1003A0008A6802F008020AB1012000E000207047CC
:1003B00030B502460020002350680F4C20400D79D4
:1003C0000C6844EA05242043506090680B4C2040A0
:1003D000D1E902542C434D7944EA4504204390600E
:1003E000D06A20F470000C7C641EE4B2234340EA1F
:1003F0000350D06230BD0000FFFEF0FFFDF7F1FFBB
:10040000F0B504460D4600200021092D11DDE068FD
:10041000A5F10A0606EB4607072606FA07F1884308
:10042000A5F10A0606EB460603FA06F10843E0606A
:100430000CE0206905EB4507072606FA07F188431B
:1004400005EB450603FA06F108432061072A0FDA97
:10045000606B561E06EB86071F2606FA07F18843D7
:10046000561E06EB860605FA06F10843606322E095
:100470000D2A0FDA206BD61F06EB86071F2606FA19
:1004800007F18843D61F06EB860605FA06F10843F6
:10049000206310E0E06AA2F10D0606EB86071F2636
:1004A00006FA07F18843A2F10D0606EB860605FA67
:1004B00006F10843E062F0BD816841F00801816007
:1004C000704721B1826842F4A002826003E0826832
:1004D00022F4A00282607047816841F004018160CB
:1004E000704700BFFEE721B1026842F001020260DE
:1004F00004E002684FF6FE731A4002607047000085
:1005000001684FF6FE7211400160002101604160F8
:100510008160C1604B49884208D14A49083949681D
:1005200041F00F01474A083A51608AE045491431C9
:10053000884208D143490839496841F0F001414AED
:10054000083A51607DE03F492831884208D13D4951
:100550000839496841F470613A4A083A516070E0DC
:1005600038493C31884208D136490839496841F454
:100570007041344A083A516063E032495031884250
:1005800008D130490839496841F470212D4A083AA8
:10059000516056E02B496431884208D12949083915
:1005A000496841F47001274A083A516049E02549F9
:1005B0007831884208D123490839496841F070618F
:1005C000204A083A51603CE01F49884206D1011F89
:1005D000096841F00F01021F116032E01A4914311D
:1005E000884208D11849091F096841F0F001164AEC
:1005F000121F116025E014492831884208D11249A0
:10060000091F096841F470610F4A121F116018E058
:100610000D493C31884208D10B49091F096841F452
:100620007041094A121F11600BE00749503188429E
:1006300007D10549091F096841F47021024A121FB8
:1006400011607047080002400804024010B5002203
:10065000026847F6F0739A430C6A8B6823430C696F
:1006600023434C6923438C692343CC6923434C6A5D
:1006700023438C6A23431A430260CB6843600B68B0
:1006800083604B68C36010BD7047000008B501214E
:100690000D2000F097F901211C4800F0C9F849F637
:1006A0007010ADF8000003208DF8020010208DF8C6
:1006B00003006946164800F02FF84FF23830ADF8C5
:1006C000000003208DF8020010208DF80300694619
:1006D000104800F021F80820ADF8000003208DF844
:1006E000020004208DF803006946094800F014F860
:1006F0000320ADF800008DF8020004208DF80300FF
:100700006946044800F008F808BD00000002300007
:1007100000080140000C01402DE9F041024600258F
:100720000026002000230024002791F803C00CF0CD
:100730000F0591F803C00CF0100CBCF1000F03D0B2
:1007400091F802C04CEA050591F800C0BCF1000F19
:1007500031D0146800202BE04FF0010C0CFA00F3AC
:10076000B1F800C00CEA03069E4220D183004FF08E
:100770000F0C0CFA03F7BC4305FA03FC4CEA040423
:1007800091F803C0BCF1280F06D14FF0010C0CFA10
:1007900000FCC2F814C00AE091F803C0BCF1480F95
:1007A00005D14FF0010C0CFA00FCC2F810C0401C3F
:1007B0000828D1D31460B1F800C0BCF1FF0F34DDBC
:1007C000546800202EE000F1080C4FF0010808FAF0
:1007D0000CF3B1F800C00CEA03069E4221D183005D
:1007E0004FF00F0C0CFA03F7BC4305FA03FC4CEA7C
:1007F000040491F803C0BCF1280F05D100F1080CE6
:1008000008FA0CF8C2F8148091F803C0BCF1480F44
:1008100007D100F1080C4FF0010808FA0CF8C2F8F3
:100820001080401C0828CED35460BDE8F081000041
:10083000F0B50A46002300240021002500F0004600
:10084000B6F1004F02D11D4EF16901E01B4E7168F7
:10085000C0F3034583B200F44016B6F5401F08D13B
:1008600021F07061154E766826F07066134F7E6039
:1008700012E000F48016B6F5801F06D1032606FAB2
:1008800005F4A14341F0706106E0460D360103FA1C
:1008900006F6B14341F0706122B1460D360103FA0C
:1008A00006F6314300F00046B6F1004F02D1034E88
:1008B000F16101E0014E7160F0BD000000000140F7
:1008C0000246002093680B400BB1012000E000209D
:1008D0007047416170470161704700BFFEE700004B
:1008E0004AF6AA2001490860704700000030004025
:1008F00000BFFEE77047000070B5002100230F2203
:10090000C47804B3154C246804F4E064C4F5E064CE
:10091000210AC1F10403CA40447804FA03F184783F
:100920001440214309010E4C0678A155047804F0C7
:100930001F050124AC4005786D11AD0005F1E025DF
:10094000C5F8004109E0047804F01F050124AC401B
:10095000044D0678761145F8264070BD0CED00E098
:1009600000E400E080E100E0704700000146002064
:10097000034A506820F4404008435060704700002C
:100980000010024029B1064A52690243044B5A61E1
:1009900004E0034A52698243014B5A6170470000E8
:1009A0000010024029B1064AD2690243044BDA61C1
:1009B00004E0034AD2698243014BDA6170470000C8
:1009C0000010024029B1064A92690243044B9A6121
:1009D00004E0034A92698243014B9A617047000028
:1009E0000010024030B500210022002400232D4DCC
:1009F0006D6805F00C0121B1042905D0082923D127
:100A000005E0294D056022E0274D05601FE0254DDA
:100A10006D6805F47012234D6D6805F4803402256D
:100A200005EB92421CB9214D554305600BE01D4D6D
:100A30006D6805F400351DB11C4D5543056002E09D
:100A4000194D5543056002E0174D056000BF00BF1A
:100A5000144D6D6805F0F0010909154D6B5C0568D2
:100A6000DD4045600F4D6D6805F4E061090A104DE9
:100A70006B5C4568DD4085600A4D6D6805F460512A
:100A8000C90A0B4D6B5C4568DD40C560054D6D685E
:100A900005F44041890B074D6B5CC568B5FBF3F568
:100AA000056130BD0010024000127A0000093D00CF
:100AB000000000201000002010B54FF4004109484C
:100AC000FFF707FF4FF400510648FFF702FF4FF40E
:100AD00080510448FFF7FFFE4FF480410148FFF7C3
:100AE000FAFE10BD000C014010B54FF480410948DA
:100AF000FFF7EFFE4FF480510648FFF7EAFE4FF490
:100B000000510448FFF7E7FE4FF400410148FFF7AA
:100B1000E2FE10BD000C014010B54FF480510948B1
:100B2000FFF7D7FE4FF400510648FFF7D2FE4FF40F
:100B300080410448FFF7CDFE4FF400410148FFF724
:100B4000C8FE10BD000C01407047000010B5082120
:100B50000C48FFF7B5FE0C490978884211D04FF4D4
:100B6000FA6000F0C3F808210648FFF7A9FE06491D
:100B70000978884205D008210248FFF7A1FE024902
:100B8000087010BD000801404900002010B500F0B9
:100B900001F810BD0CB500200190009033480068AA
:100BA00040F480303149086000BF3048006800F4EC
:100BB000003000900198401C0190009818B90198ED
:100BC000B0F5005FF1D12948006800F4003010B1A1
:100BD0000120009001E0002000900098012843D1FE
:100BE0002348006840F0100021490860084600686A
:100BF00020F0030008600846006840F0020008602A
:100C00001A484068194948600846406848600846E4
:100C1000406840F4806048600846406820F47C10DA
:100C200048600846406840F4E8104860084600689C
:100C300040F08070086000BF0C48006800F0007051
:100C40000028F9D00948406820F0030007494860AF
:100C50000846406840F00200486000BF0348406812
:100C600000F00C000828F9D10CBD00000010024073
:100C70000020024010B54FF480710248FFF729FEB2
:100C800010BD0000000801407047000010B5134877
:100C9000006840F0010011490860084640681049AA
:100CA00008400E494860084600680E4908400B4954
:100CB00008600846006820F4802008600846406804
:100CC00020F4FE0048604FF41F008860FFF75EFFCD
:100CD0004FF000600449086010BD000000100240A1
:100CE0000000FFF8FFFFF6FE08ED00E00021044AD7
:100CF000116000BF024909688142FBD370470000C0
:100D00001400002010B50121880700F034F8E8B184
:100D10000121880700F020F80D480068401C0C49AC
:100D2000086008460068B0F1805F01D300200860C9
:100D300008480068401C074908600846006842F2FD
:100D40001071884202D900200249086010BD0000DD
:100D50001400002018000020CA430282704721B10D
:100D6000028842F00102028004E002884FF6FE731E
:100D70001A400280704730B502460020002300244C
:100D8000158A05EA0103958905EA010413B10CB13E
:100D9000012000E0002030BD1AB183890B4383811C
:100DA00002E083898B438381704700000022028820
:100DB0001D4B98420ED01D4B98420BD0B0F1804F86
:100DC00008D01B4B984205D01A4B984202D01A4BC0
:100DD000984204D14FF68F731A404B881A43174B31
:100DE000984207D0164B984204D04FF6FF431A4062
:100DF000CB881A4302808B8883850B8803850A4B36
:100E000098420BD0094B984208D00E4B984205D01F
:100E10000D4B984202D00D4B984201D10B7A0386BC
:100E20000123838270470000002C01400034014000
:100E30000004004000080040000C0040001000408A
:100E400000140040004001400044014000480140BF
:100E50001FB501210846FFF7A5FD1C208DF80C00E9
:100E600000208DF80D0001208DF80E008DF80F0088
:100E700003A8FFF741FD6420ADF804004720ADF85A
:100E800000000020ADF80600ADF8020069464FF002
:100E90008040FFF78BFF012211469007FFF77CFF90
:100EA00001218807FFF75BFF1FBD000010B540F26E
:100EB00025511D4800F04AF810B31B4800F002F914
:100EC000C4B21A48008800F40040C8B91748008826
:100ED00000F4804060B10A2C03D000201349088040
:100EE00020E01248008840F400401049088019E0D2
:100EF0000D2C06D10D48008840F480400B49088035
:100F000010E00A480088C0F30D0009490C54074856
:100F10000088401C0549088008460088C72801DD74
:100F20000020088010BD0000003801402000002093
:100F30003C07002021B1828942F40052828104E002
:100F400082894DF6FF731A408281704770B5024660
:100F5000002400230025002040F66A16B14200D18B
:100F600000BFC1F3421501F01F03012606FA03F387
:100F7000012D02D19689334006E0022D02D1168A56
:100F8000334001E0968A33400C12012606FA04F43D
:100F90001688344013B10CB1012000E0002070BD70
:100FA000F0B50346002400260025002040F66A170D
:100FB000B94200D100BF1846C1F3421401F01F0628
:100FC000012707FA06F5012C01D10C3004E0022CB0
:100FD00001D1103000E014301AB107682F430760C8
:100FE00002E00768AF430760F0BD00002DE9F0475D
:100FF00086B005460E460024A24600BFA146002743
:10100000B08900B100BF2F462C8A4CF6FF70044017
:10101000F08804432C82AC894EF6F3100440B0886B
:1010200031890843718908430443AC81AC8A4FF687
:10103000FF400440B0890443AC8201A8FFF7D2FC12
:101040001F48874202D1DDF810A001E0DDF80CA0B6
:10105000A88900F4004040B10AEBCA0000EB0A1076
:1010600031684900B0FBF1F807E00AEBCA0000EB79
:101070000A1031688900B0FBF1F86420B8FBF0F089
:1010800004012009642101FB1089A88900F40040B3
:1010900040B1322000EBC900B0FBF1F000F00700D6
:1010A000044308E0322000EB09106421B0FBF1F0AA
:1010B00000F00F0004432C8106B0BDE8F08700006B
:1010C0000038014001468888C0F30800704700BF1F
:1010D000FEE7014600BF704700BFFFF7D7FAFFF7F2
:1010E0001BFDFFF7C7FD10218248FFF7F2FB4021EF
:1010F0008048FFF7EEFB4FF400417E48FFF7E9FB25
:101100004FF480717C48FFF7E4FB20217948FFF71A
:10111000E0FB4FF400617748FFF7DBFB4FF4007111
:101120007548FFF7D6FB20217348FFF7D2FB10214B
:101130007148FFF7CEFB08216F48FFF7CAFBFFF7A6
:1011400087FEFFF777F84FF4E13000F0DBF8D0E0EE
:101150006A480068B0F5FA7F07D240F2F510674997
:101160000860FFF7BDFBFFF7F1FC6548FFF7BEFD28
:10117000FFF7A2FC10215F48FFF7ABFB40215D4861
:10118000FFF7A9FB4FF400415A48FFF7A4FB4FF4C7
:1011900080715948FFF79DFB20215648FFF79BFBC4
:1011A0004FF400615348FFF794FB4FF4007152482D
:1011B000FFF78FFB20215048FFF78DFB10214E4891
:1011C000FFF787FB08214C48FFF783FB4C48FFF7EC
:1011D0008DFDFFF7A1FC10214648FFF77AFB402167
:1011E0004448FFF776FB4FF400414248FFF771FB9C
:1011F0004FF480714048FFF76CFB20213D48FFF71A
:1012000068FB4FF400613B48FFF763FB4FF400714C
:101210003948FFF75EFB20213748FFF75AFB1021C2
:101220003548FFF758FB08213348FFF754FB344893
:10123000FFF75CFDFFF758FC10212E48FFF74BFB32
:1012400040212C48FFF745FB4FF400412948FFF7A8
:1012500040FB4FF480712848FFF73DFB20212548D3
:10126000FFF737FB4FF400612248FFF734FB4FF4E0
:1012700000712148FFF72FFB20211F48FFF729FBB2
:1012800010211D48FFF725FB08211B48FFF721FB14
:101290001B48FFF72BFDFFF73FFC10211548FFF718
:1012A00018FB40211348FFF714FB4FF4004111488D
:1012B000FFF70FFB4FF480710F48FFF70AFB202167
:1012C0000C48FFF706FB4FF400610A48FFF701FBEB
:1012D0004FF400710848FFF7FCFA20210648FFF799
:1012E000F8FA10210448FFF7F6FA08210248FFF740
:1012F000F2FA2DE700080140000C01401800002020
:10130000A086010010B586B00446012144F2040015
:10131000FFF758FB4FF40070ADF8140003208DF870
:10132000160018208DF8170005A91C48FFF7F4F9DE
:101330004FF48060ADF8140004208DF8170005A963
:101340001648FFF7E9F925208DF8000003208DF8F5
:1013500001008DF8020001208DF803006846FFF7B8
:10136000CBFA01940020ADF80800ADF80A00ADF802
:101370000C00ADF810000C20ADF80E0001A90848D3
:10138000FFF734FE012240F225510548FFF708FE21
:1013900001210348FFF7CEFD06B010BD0008014053
:1013A00000380140C4130008000000204C00000079
:1013B00028010008101400084C0000201C0E00003A
:1013C00044010008000000000102030401020304BC
:1013D00006070809020406080000000000000000DB
:1013E00000000000000000001400000000000000E9
:1013F00000000000000000000000000000000000ED
:1014000000000000000000000000000000010101D9
:04000005080000ED02
:00000001FF
